S026000050726F796563746F206465204D6963726F636F6E74726F6C61646F7265732E7372656327
S11300000C9434000C9451000C9451000C94510045
S11300100C9451000C94BA020C9451000C945100AD
S11300200C9451000C9451000C9451000C94510008
S11300300C9451000C9451000C9451000C945100F8
S11300400C9451000C9451000C9451000C945100E8
S11300500C9451000C9451000C9451000C945100D8
S11300600C9451000C94510011241FBECFEFD8E022
S1130070DEBFCDBF11E0A0E0B1E0EEEDFDE002C0D7
S113008005900D92A632B107D9F721E0A6E2B1E0BE
S113009001C01D92A732B207E1F70E949F010C94A0
S11300A0ED060C94000028B1982F96959695392F5B
S11300B03C73232B28B928B1936C922398B998B137
S11300C09E7F98B998B1926098B9EFE9FFE03197B3
S11300D0F1F700C0000098B19D7F98B9EFE9FFE007
S11300E03197F1F700C0000028B190E0880F991F04
S11300F0880F991F982F9C73922B98B998B1836C91
S1130100892388B988B1826088B98FE99FE0019713
S1130110F1F700C0000088B18D7F88B9EFE9FFE0F6
S11301203197F1F700C0000008958CE387B987B1D7
S1130130836087B988E088B988B1826088B988B15A
S11301408E7F88B98FE99FE00197F1F700C0000026
S113015088B18D7F88B98FE99FE00197F1F700C0DE
S1130160000088E20E9453008FE99FE00197F1F7B5
S113017000C000008FE00E9453008FE99FE00197C8
S1130180F1F700C0000080E80E945300089528B1F0
S1130190982F96959695392F3C73232B28B928B11F
S11301A0936C922398B998B1916098B998B1926080
S11301B098B9EFE3FFE13197F1F700C0000098B17F
S11301C09D7F98B9EFE3FFE13197F1F700C000009C
S11301D028B190E0880F991F880F991F982F9C735E
S11301E0922B98B998B1836C892388B988B18260BD
S11301F088B98FE39FE10197F1F700C0000088B14F
S11302008D7F88B9EFE3FFE13197F1F700C000007B
S113021008950F931F93CF93DF938C01C0E0D0E038
S113022003C00E94C7002196F801EC0FFD1F8081D6
S11302308111F7CFDF91CF911F910F91089581E044
S11302400E9453008FE19EE40197F1F700C0000083
S1130250089520E4829FC00111248068860F0E94C3
S113026053008FEF90E722E0815090402040E1F767
S113027000C0000008950E941F0160E080E00E9419
S1130280290180E091E00E94090160E081E00E9480
S11302902901089587EF8BB98FE99FE00197F1F762
S11302A000C000004F9B02C080E001C081E34E9B70
S11302B084E34D9B87E34C9B83E4882319F090EF00
S11302C09BB908959BEF9BB9EFE9FFE03197F1F7F4
S11302D000C000004F9B82E34E9B85E34D9B88E367
S11302E04C9B80E3882319F090EF9BB908959DEF10
S11302F09BB9EFE9FFE03197F1F700C000004F9B95
S113030083E34E9B86E34D9B89E34C9B8DE38823DB
S113031019F090EF9BB908959EEF9BB9EFE9FFE0C8
S11303203197F1F700C000004F9B8BE24E9B8DE2AA
S11303304D9B88E74C9B8FE290EF9BB90895CF9338
S1130340DF93CDB7DEB760970FB6F894DEBF0FBE6C
S1130350CDBF8AB18F608AB98AB18F708AB98BB1E7
S1130360806F8BB98BB1807F8BB9E8E6F0E0808138
S113037084608083EDE6F0E08081806F80837894F0
S11303800E9495000E943B01712C812CC12CD12C20
S1130390E12CF12C00E010E0A12CB12C809126017D
S11303A08823E1F30E944A01982E80ED890D8A305A
S11303B0A8F4B801660F771F000F111F000F111F5B
S11303C0000F111F060F171F892D90E0C097080F0B
S11303D0191F892D0E94C700712CC3C08BE2981687
S11303E049F09DE2991631F088E7981619F09FE2DA
S11303F0991213C0772039F06C2D7D2D8E2D9F2DF1
S11304000E943F038B01892D0E94C700892C58014B
S11304107724739400E010E0A4C08DE3981292C096
S11304209DE28916D9F0981520F08BE2881641F0E8
S113043058C09FE2891691F188E78816E9F051C007
S1130440B501600F711F072E000C880B990B0E94D9
S11304507703C62ED72EE82EF92E43C0B501601BB4
S1130460710B072E000C880B990B0E947703C62E84
S1130470D72EE82EF92E35C0A09EB001A19E700D96
S1130480B09E700D1124072E000C880B990B0E944E
S11304907703C62ED72EE82EF92E23C00115110599
S11304A0C9F0B501BB0C880B990B0E9477036B0153
S11304B07C01B801110F880B990B0E9477039B01F3
S11304C0AC01C701B6010E94CD02C62ED72EE82E7C
S11304D0F92E07C00E941F018FE091E00E940901DC
S11304E05DCF0E941F0160E080E00E94290185E148
S11304F091E00E940901FF92EF92DF92CF9280E295
S113050091E09F938F938E010F5F1F4F1F930F9363
S11305100E94030460E081E00E942901C8010E9456
S113052009016C2D7D2D8E2D9F2D0E943F035B01B3
S11305300FB6F894DEBF0FBECDBF7724739400E0EE
S113054010E00FC093E499120CC00E943B01712C7F
S1130550812CC12CD12CE12CF12C00E010E0A12C39
S1130560B12C8FE39CE90197F1F700C000001092D1
S1130570260114CF1F920F920FB60F9211248F935E
S113058080912601811103C081E0809326018F911F
S11305900F900FBE0F901F9018950E94E1020C94CB
S11305A0C9030E94C20358F00E94BB0340F029F41F
S11305B05F3F29F00C94B20351110C94FD030C9489
S11305C0B8030E94DA0368F39923B1F3552391F336
S11305D0951B550BBB27AA2762177307840738F0AE
S11305E09F5F5F4F220F331F441FAA1FA9F335D00B
S11305F00E2E3AF0E0E832D091505040E695001CBF
S1130600CAF72BD0FE2F29D0660F771F881FBB1F78
S1130610261737074807AB07B0E809F0BB0B802D56
S1130620BF01FF2793585F4F3AF09E3F510578F082
S11306300C94B2030C94FD035F3FE4F3983ED4F3AF
S1130640869577956795B795F7959F5FC9F7880F56
S1130650911D9695879597F90895E1E0660F771FA8
S1130660881FBB1F621773078407BA0720F0621B39
S1130670730B840BBA0BEE1F88F7E09508950E9464
S113068046036894B1110C94FD0308950E94E2039B
S113069088F09F5798F0B92F9927B751B0F0E1F03F
S11306A0660F771F881F991F1AF0BA95C9F714C0EF
S11306B0B13091F00E94FC03B1E008950C94FC0366
S11306C0672F782F8827B85F39F0B93FCCF3869528
S11306D077956795B395D9F73EF490958095709585
S11306E061957F4F8F4F9F4F0895E89409C097FB02
S11306F03EF490958095709561957F4F8F4F9F4FF5
S11307009923A9F0F92F96E9BB279395F695879538
S113071077956795B795F111F8CFFAF4BB0F11F4FB
S113072060FF1BC06F5F7F4F8F4F9F4F16C08823A2
S113073011F096E911C0772321F09EE8872F762FD8
S113074005C0662371F096E8862F70E060E02AF019
S11307509A95660F771F881FDAF7880F9695879505
S113076097F9089597F99F6780E870E060E008952D
S11307709FEF80EC089500240A94161617061806B5
S11307800906089500240A94121613061406050691
S11307900895092E0394000C11F4882352F0BB0F22
S11307A040F4BF2B11F460FF04C06F5F7F4F8F4F85
S11307B09F4F089557FD9058440F551F59F05F3FC0
S11307C071F04795880F97FB991F61F09F3F79F06F
S11307D087950895121613061406551FF2CF4695F1
S11307E0F1DF08C0161617061806991FF1CF869573
S11307F07105610508940895E894BB276627772757
S1130800CB0197F90895AEE0B0E0E9E0F4E00C9490
S1130810C4060D891E8986E08C831A8309838FEFB1
S11308209FE79E838D83AE01475E5F4F6F89788D0E
S1130830CE0101960E942504EF81F885E00FF11F97
S113084010822E96E4E00C94E006ABE0B0E0EBE21C
S1130850F4E00C94B6066C017B018A01FC0117825A
S11308601682838181FFCCC1CE0101963C01F60141
S11308709381F70193FD859193FF81917F018823F3
S113088009F4BAC1853239F493FD859193FF8191BE
S11308907F01853229F4B60190E00E941C06E7CF5F
S11308A0912C212C312CFFE1F315D8F08B3279F007
S11308B038F4803279F08332A1F4232D20611DC0F5
S11308C08D3261F0803369F4232D216016C0832DAD
S11308D08260382EE32DE4603E2E2AC0F32DF860AA
S11308E01DC037FC2DC020ED280F2A3040F08E3279
S11308F0B9F436FC81C1232D2064322E19C036FE92
S113090006C08AE0989E200D1124922E11C0EAE0C0
S11309102E9E200D1124222EF32DF0623F2E08C0AE
S11309208C3621F4832D8068382E02C0883641F439
S1130930F70193FD859193FF81917F018111B3CFDD
S1130940982F9F7D9554933028F40C5F1F4F9FE39D
S113095099830DC0833631F0833771F0833509F004
S113096059C021C0F801808189830E5F1F4F8824FC
S11309708394912C530113C02801F2E04F0E511CB3
S1130980F801A080B18036FE03C0692D70E002C07A
S11309906FEF7FEFC5010E9411064C018201F32D18
S11309A0FF773F2E16C0280122E0420E511CF801A9
S11309B0A080B18036FE03C0692D70E002C06FEFE5
S11309C07FEFC5010E9406064C01F32DF0683F2E0F
S11309D0820133FC1BC0822D90E088169906B0F486
S11309E0B60180E290E00E941C062A94F4CFF5013F
S11309F037FC859137FE81915F01B60190E00E943A
S1130A001C0621102A9421E0821A91088114910471
S1130A1071F7E8C0843611F0893641F5F80137FEE4
S1130A2007C060817181828193810C5F1F4F08C070
S1130A3060817181072E000C880B990B0E5F1F4F8C
S1130A40F32DFF763F2E97FF09C090958095709502
S1130A5061957F4F8F4F9F4FF0683F2E2AE030E023
S1130A60A3010E945806882E861845C0853731F4A4
S1130A70232D2F7EB22E2AE030E025C0932D997FBE
S1130A80B92E8F36C1F018F4883579F0B5C08037A7
S1130A9019F0883721F0B0C0E92FE061BE2EB4FE12
S1130AA00DC0FB2DF460BF2E09C034FE0AC0292FEF
S1130AB02660B22E06C028E030E005C020E130E018
S1130AC002C020E132E0F801B7FE07C06081718105
S1130AD0828193810C5F1F4F06C06081718180E029
S1130AE090E00E5F1F4FA3010E945806882E8618BF
S1130AF0FB2DFF773F2E36FE0DC0232D2E7FA22E19
S1130B00891458F434FE0BC032FC09C0832D8E7E48
S1130B10A82E05C0B82CA32C03C0B82C01C0B92C36
S1130B20A4FE0FC0FE01E80DF11D8081803321F485
S1130B309A2D997EA92E09C0A2FE06C0B394B3943F
S1130B4004C08A2D867809F0B394A3FC11C0A0FEDA
S1130B5006C0B21488F4280C922C9B180EC0B21450
S1130B6060F4B60180E290E00E941C06B394F7CFD3
S1130B70B21418F42B1802C0982C212CA4FE10C017
S1130B80B60180E390E00E941C06A2FE17C0A1FCFF
S1130B9003C088E790E002C088E590E0B6010CC08D
S1130BA08A2D867859F0A1FE02C08BE201C080E252
S1130BB0A7FC8DE2B60190E00E941C06891438F46B
S1130BC0B60180E390E00E941C069A94F7CF8A94C1
S1130BD0F301E80DF11D8081B60190E00E941C062E
S1130BE08110F5CF222009F442CEB60180E290E0D4
S1130BF00E941C062A94F6CFF6018681978102C0D2
S1130C008FEF9FEF2B96E2E10C94D206FC01059046
S1130C10615070400110D8F7809590958E0F9F1FFA
S1130C200895FC016150704001900110D8F780953F
S1130C3090958E0F9F1F08950F931F93CF93DF936B
S1130C40FB01238121FD03C08FEF9FEF2CC022FF06
S1130C5016C046815781248135814217530744F4D5
S1130C60A081B1819D012F5F3F4F318320838C93FD
S1130C70268137812F5F3F4F3783268314C08B0132
S1130C80EC01FB010084F185E02D0995892BE1F647
S1130C90D80116968D919C911797019617969C935F
S1130CA08E931697CE01DF91CF911F910F910895E6
S1130CB0FA01AA27283051F1203181F1E8946F9389
S1130CC06E7F6E5F7F4F8F4F9F4FAF4FB1E03ED02F
S1130CD0B4E03CD0670F781F891F9A1FA11D680FCD
S1130CE0791F8A1F911DA11D6A0F711D811D911D00
S1130CF0A11D20D009F468943F912AE0269F112475
S1130D003019305D3193DEF6CF010895462F4770D8
S1130D10405D4193B3E00FD0C9F7F6CF462F4F7033
S1130D20405D4A3318F0495D31FD4052419302D091
S1130D30A9F7EACFB4E0A695979587957795679537
S1130D40BA95C9F700976105710508959B01AC0137
S1130D500A2E06945795479537952795BA95C9F75E
S1130D60620F731F841F951FA01D08952F923F9239
S1130D704F925F926F927F928F929F92AF92BF92A7
S1130D80CF92DF92EF92FF920F931F93CF93DF9353
S1130D90CDB7DEB7CA1BDB0B0FB6F894DEBF0FBEB0
S1130DA0CDBF09942A88398848885F846E847D84FD
S1130DB08C849B84AA84B984C884DF80EE80FD80FF
S1130DC00C811B81AA81B981CE0FD11D0FB6F89475
S1110DD0DEBF0FBECDBFED010895F894FFCF36
S1130DDE43414C43554C41444F52412E2E2E004517
S1130DEE72726F7200526573756C7461646F3A003F
S1090DFE252E3266000000
S9030000FC
