S026000050726F796563746F206465204D6963726F636F6E74726F6C61646F7265732E7372656327
S11300000C943B000C9458000C9458000C94580029
S11300100C9458000C949A030C9458000C945800B7
S11300200C9458000C9458000C9458000C94F6034B
S11300300C9458000C9458000C9458000C945800DC
S11300400C9458000C9458000C9458000C945800CC
S11300500C9458000C9458000C9458000C945800BC
S11300600C9458000C9458009301AF01CB01E701A4
S113007003021F023B0211241FBECFEFD8E0DEBFF4
S1130080CDBF11E0A0E0B1E0ECECFFE002C00590D0
S11300900D92A838B107D9F721E0A8E8B1E001C072
S11300A01D92AB3AB207E1F70E947A030C94E4077D
S11300B00C94000082959295907F9827807F9827D2
S11300C09C0140E050E060E472E48FE090E00E9424
S11300D02104215031093093890020938800E0E8FD
S11300E0F0E08081806480830895E0E8F0E080811E
S11300F08F7B8083089528B1982F96959695392FF4
S11301003C73232B28B928B1936C922398B998B1E6
S11301109E7F98B998B1926098B9EFE9FFE0319762
S1130120F1F700C0000098B19D7F98B9EFE9FFE0B6
S11301303197F1F700C0000028B190E0880F991FB3
S1130140880F991F982F9C73922B98B998B1836C40
S1130150892388B988B1826088B98FE99FE00197C3
S1130160F1F700C0000088B18D7F88B9EFE9FFE0A6
S11301703197F1F700C0000008958CE387B987B187
S1130180836087B988E088B988B1826088B988B10A
S11301908E7F88B98FE99FE00197F1F700C00000D6
S11301A088B18D7F88B98FE99FE00197F1F700C08E
S11301B0000088E20E947B008FE99FE00197F1F73D
S11301C000C000008FE00E947B008FE99FE0019750
S11301D0F1F700C0000080E80E947B00089528B178
S11301E0982F96959695392F3C73232B28B928B1CF
S11301F0936C922398B998B1916098B998B1926030
S113020098B9EFE3FFE13197F1F700C0000098B12E
S11302109D7F98B9EFE3FFE13197F1F700C000004B
S113022028B190E0880F991F880F991F982F9C730D
S1130230922B98B998B1836C892388B988B182606C
S113024088B98FE39FE10197F1F700C0000088B1FE
S11302508D7F88B9EFE3FFE13197F1F700C000002B
S113026008950F931F93CF93DF938C01C0E0D0E0E8
S113027003C00E94EF002196F801EC0FFD1F80815E
S11302808111F7CFDF91CF911F910F91089581E0F4
S11302900E947B008FE19EE40197F1F700C000000B
S11302A0089520E4829FC00111248068860F0E9473
S11302B07B008FEF90E722E0815090402040E1F7EF
S11302C000C000000895109280008AE080938100AD
S11302D08FEC97E0909389008093880082E080936C
S11302E06F000895F89480918A0190918B0178941D
S11302F00895E8E6F0E0808184608083EDE6F0E034
S113030080818FEF808389B18093AA010895CF9370
S1130310C62F90E08730910508F0C8C0FC01EC5C62
S1130320FF4F0C94430485B1846085B981E490E067
S11303300E945A002FEF89E698E1215080409040B6
S1130340E1F700C000000E9475002FEF81EE94E0F9
S1130350215080409040E1F700C00000A7C085B163
S1130360886085B989E490E00E945A002FEF89E6FD
S113037098E1215080409040E1F700C000000E94C5
S113038075002FEF81EE94E0215080409040E1F71A
S113039000C000008BC085B18C6085B982E590E017
S11303A00E945A002FEF89E698E121508040904046
S11303B0E1F700C000000E9475002FEF81EE94E089
S11303C0215080409040E1F700C000006FC085B12B
S11303D0816085B987E590E00E945A002FEF89E695
S11303E098E1215080409040E1F700C000000E9455
S11303F075002FEF81EE94E0215080409040E1F7AA
S113040000C0000053C085B1856085B982E690E0E4
S11304100E945A002FEF89E698E1215080409040D5
S1130420E1F700C000000E9475002FEF81EE94E018
S1130430215080409040E1F700C0000037C085B1F2
S1130440896085B98EE690E00E945A002FEF89E614
S113045098E1215080409040E1F700C000000E94E4
S113046075002FEF81EE94E0215080409040E1F739
S113047000C000001BC085B18D6085B98BE790E09A
S11304800E945A002FEF89E698E121508040904065
S1130490E1F700C000000E9475002FEF81EE94E0A8
S11304A0215080409040E1F700C00000C1110AC013
S11304B02FEF84E39CE0215080409040E1F700C09E
S11304C0000009C02FEF87EA91E621508040904058
S11304D0E1F700C0000085B18B7F85B985B1877FC6
S11304E085B985B18E7F85B9CF910895CF93DF9378
S11304F00E94720190930601809305010E94AE044C
S1130500C0E0D0E00CC00E94A90467E070E00E9443
S11305100D04FE01E457FE4F8F5F80832196CE3198
S1130520D10588F3DF91CF9108950F931F93CF9353
S1130530DF93CDB7DEB72B970FB6F894DEBF0FBEAF
S1130540CDBF8BE0EEE2F1E08E010F5F1F4FD801CB
S113055001900D928A95E1F7809104011F928F9387
S11305601F930F9387E091E09F938F931F930F93B3
S11305700E94B9040E94470160E080E00E9451019A
S11305808CE091E00E94310160E081E00E94510121
S1130590C8010E9431012FEF89E698E12150804083
S11305A09040E1F700C000000FB6F894DEBF0FBE24
S11305B0CDBF00E010E015C0F801E457FE4F808184
S11305C08823B1F060E081500E9487019FEF26E10B
S11305D081E1915020408040E1F700C000000F5FAE
S11305E01F4F8091040190E002960817190724F325
S11305F060E080E00E9451018DE191E00E943101B0
S11306002B960FB6F894DEBF0FBECDBFDF91CF910E
S11306101F910F9108951092890181E08093040144
S1130620109288010E9476020895CF93C82F60E04B
S113063080E00E9451012C2F30E0E0918901F0E02C
S1130640E457FE4F808190E001972817390729F578
S11306508FE99FE00197F1F700C0000089E391E082
S11306600E94310160E08C2F0E94870180918901F2
S11306708F5F8093890190E040910401242F30E042
S11306802E5F3F4F8217930799F54F5F4093040104
S1130690109289010E9495022BC08AE491E00E9485
S11306A03101E0918901F0E0E457FE4F808161E07F
S11306B081500E9487019FEF23ED80E391502040F9
S11306C08040E1F700C000000E940B030E94470134
S11306D060E080E00E9451018BE591E00E943101CD
S11306E060E081E00E94510189E691E00E943101BD
S11306F0CF9108958FE084B915B81AB88FEF8BB9EC
S11307000E94630178940E9479010E94BD000E94B6
S1130710470160E080E00E9451018AE791E00E9475
S1130720310160E081E00E94510189E691E00E947C
S11307303101FFCF1F920F920FB60F9211241F9316
S11307402F933F934F935F936F937F938F939F93D5
S1130750AF93BF93CF93DF93EF93FF9319B1D091EE
S1130760AA01D1271093AA01C0E02AC08D2F90E0DE
S11307700C2E02C0959587950A94E2F780FF1FC05E
S1130780812F90E00C2E02C0959587950A94E2F78C
S113079080FD15C0C73061F48091880181110FC0BC
S11307A081E0809388010E9476020E94950207C02E
S11307B080918801882319F08C2F0E941503CF5F44
S11307C0C830A0F2FF91EF91DF91CF91BF91AF912B
S11307D09F918F917F916F915F914F913F912F9155
S11307E01F910F900FBE0F901F9018951F920F929C
S11307F00FB60F9211248F939F9380918A01909149
S11308008B01019690938B0180938A019F918F9124
S11308100F900FBE0F901F90189597FB072E16F49C
S1130820009407D077FD09D00E94490407FC05D045
S11308303EF4909581959F4F0895709561957F4FF3
S11308400895A1E21A2EAA1BBB1BFD010DC0AA1F0D
S1130850BB1FEE1FFF1FA217B307E407F50720F025
S1130860A21BB30BE40BF50B661F771F881F991FA0
S11308701A9469F760957095809590959B01AC01E9
S1130880BD01CF010895EE0FFF1F0590F491E02DF7
S11308900994AA1BBB1B51E107C0AA1FBB1FA617C3
S11308A0B70710F0A61BB70B881F991F5A95A9F715
S11308B080959095BC01CD0108958F929F92AF923F
S11308C0BF92CF92DF92EF92FF92CF93DF93EC012E
S11308D0688179818A819B81611571058105910502
S11308E021F464E279ED8BE597E02DE133EF41E00B
S11308F050E00E946C0749015A019B01AC01A7EA30
S1130900B1E40E948B076B017C01ACEEB4EFA5014E
S113091094010E949907DC01CB018C0D9D1DAE1D35
S1130920BF1DB7FF03C00197A109B048888399830D
S1130930AA83BB839F77DF91CF91FF90EF90DF90E5
S1130940CF90BF90AF909F908F9008950E945D04C8
S1130950089580E091E00E945D040895A0E0B0E075
S11309608093000190930101A0930201B0930301CD
S11309700895AEE0B0E0EFEBF4E00C94AC070D8921
S11309801E8986E08C831A8309838FEF9FE79E83F9
S11309908D83AE01475E5F4F6F89788DCE010196DE
S11309A00E94DB04EF81F885E00FF11F10822E9680
S11309B0E4E00C94C807ABE0B0E0E1EEF4E00C94A2
S11309C09E076C017B018A01FC01178216828381D8
S11309D081FFCCC1CE0101963C01F6019381F70160
S11309E093FD859193FF81917F01882309F4BAC116
S11309F0853239F493FD859193FF81917F0185328E
S1130A0029F4B60190E00E94D206E7CF912C212C64
S1130A10312CFFE1F315D8F08B3279F038F48032C1
S1130A2079F08332A1F4232D20611DC08D3261F051
S1130A30803369F4232D216016C0832D8260382E03
S1130A40E32DE4603E2E2AC0F32DF8601DC037FC70
S1130A502DC020ED280F2A3040F08E32B9F436FC38
S1130A6081C1232D2064322E19C036FE06C08AE0CF
S1130A70989E200D1124922E11C0EAE02E9E200D86
S1130A801124222EF32DF0623F2E08C08C3621F45F
S1130A90832D8068382E02C0883641F4F70193FD17
S1130AA0859193FF81917F018111B3CF982F9F7D11
S1130AB09554933028F40C5F1F4F9FE399830DC026
S1130AC0833631F0833771F0833509F059C021C082
S1130AD0F801808189830E5F1F4F88248394912CB1
S1130AE0530113C02801F2E04F0E511CF801A080FD
S1130AF0B18036FE03C0692D70E002C06FEF7FEF56
S1130B00C5010E94C7064C018201F32DFF773F2ED9
S1130B1016C0280122E0420E511CF801A080B180C9
S1130B2036FE03C0692D70E002C06FEF7FEFC50190
S1130B300E94BC064C01F32DF0683F2E820133FC69
S1130B401BC0822D90E088169906B0F4B60180E2AD
S1130B5090E00E94D2062A94F4CFF50137FC8591E7
S1130B6037FE81915F01B60190E00E94D206211008
S1130B702A9421E0821A91088114910471F7E8C043
S1130B80843611F0893641F5F80137FE07C06081DB
S1130B907181828193810C5F1F4F08C060817181D4
S1130BA0072E000C880B990B0E5F1F4FF32DFF7659
S1130BB03F2E97FF09C090958095709561957F4F62
S1130BC08F4F9F4FF0683F2E2AE030E0A3010E9430
S1130BD00E07882E861845C0853731F4232D2F7EC5
S1130BE0B22E2AE030E025C0932D997FB92E8F369E
S1130BF0C1F018F4883579F0B5C0803719F088371A
S1130C0021F0B0C0E92FE061BE2EB4FE0DC0FB2D73
S1130C10F460BF2E09C034FE0AC0292F2660B22E0C
S1130C2006C028E030E005C020E130E002C020E149
S1130C3032E0F801B7FE07C060817181828193813F
S1130C400C5F1F4F06C06081718180E090E00E5FF1
S1130C501F4FA3010E940E07882E8618FB2DFF77D5
S1130C603F2E36FE0DC0232D2E7FA22E891458F45C
S1130C7034FE0BC032FC09C0832D8E7EA82E05C025
S1130C80B82CA32C03C0B82C01C0B92CA4FE0FC0EF
S1130C90FE01E80DF11D8081803321F49A2D997EA7
S1130CA0A92E09C0A2FE06C0B394B39404C08A2D31
S1130CB0867809F0B394A3FC11C0A0FE06C0B21458
S1130CC088F4280C922C9B180EC0B21460F4B60160
S1130CD080E290E00E94D206B394F7CFB21418F4E5
S1130CE02B1802C0982C212CA4FE10C0B60180E35E
S1130CF090E00E94D206A2FE17C0A1FC03C088E7C0
S1130D0090E002C088E590E0B6010CC08A2D867898
S1130D1059F0A1FE02C08BE201C080E2A7FC8DE283
S1130D20B60190E00E94D206891438F4B60180E33B
S1130D3090E00E94D2069A94F7CF8A94F301E80DCA
S1130D40F11D8081B60190E00E94D2068110F5CF9A
S1130D50222009F442CEB60180E290E00E94D2063D
S1130D602A94F6CFF6018681978102C08FEF9FEF18
S1130D702B96E2E10C94BA07FC0105906150704097
S1130D800110D8F7809590958E0F9F1F0895FC0150
S1130D906150704001900110D8F7809590958E0FA6
S1130DA09F1F08950F931F93CF93DF93FB0123811C
S1130DB021FD03C08FEF9FEF2CC022FF16C0468198
S1130DC05781248135814217530744F4A081B181AE
S1130DD09D012F5F3F4F318320838C932681378180
S1130DE02F5F3F4F3783268314C08B01EC01FB0137
S1130DF00084F185E02D0995892BE1F6D80116963A
S1130E008D919C911797019617969C938E931697A4
S1130E10CE01DF91CF911F910F910895FA01AA2776
S1130E20283051F1203181F1E8946F936E7F6E5F29
S1130E307F4F8F4F9F4FAF4FB1E03ED0B4E03CD0D7
S1130E40670F781F891F9A1FA11D680F791F8A1FBA
S1130E50911DA11D6A0F711D811D911DA11D20D021
S1130E6009F468943F912AE0269F11243019305DDB
S1130E703193DEF6CF010895462F4770405D4193CC
S1130E80B3E00FD0C9F7F6CF462F4F70405D4A3319
S1130E9018F0495D31FD4052419302D0A9F7EACFE1
S1130EA0B4E0A6959795879577956795BA95C9F710
S1130EB000976105710508959B01AC010A2E069403
S1130EC05795479537952795BA95C9F7620F731FBC
S1130ED0841F951FA01D0895052E97FB1EF40094F2
S1130EE00E94830757FD07D00E94210407FC03D00A
S1130EF04EF40C94830750954095309521953F4FBF
S1130F004F4F5F4F089590958095709561957F4FF1
S1130F108F4F9F4F08950E94D507A59F900DB49FB2
S1130F20900DA49F800D911D11240895B7FF0C947A
S1130F308B070E948B07821B930B08952F923F927D
S1130F404F925F926F927F928F929F92AF92BF92D5
S1130F50CF92DF92EF92FF920F931F93CF93DF9381
S1130F60CDB7DEB7CA1BDB0B0FB6F894DEBF0FBEDE
S1130F70CDBF09942A88398848885F846E847D842B
S1130F808C849B84AA84B984C884DF80EE80FD802D
S1130F900C811B81AA81B981CE0FD11D0FB6F894A3
S1130FA0DEBF0FBECDBFED010895A29FB001B39F78
S1130FB0C001A39F700D811D1124911DB29F700D5E
S10F0FC0811D1124911D0895F894FFCFA9
S1130FCC0100000001010025732564005072657353
S1130FDC7461206174656E63696F6E21002020203A
S1130FEC20202020476F212020202020200020209A
S1130FFC2020526F6E646120002020202020426942
S113100C656E212020202020200020202047414DE7
S113101C45204F5645522120202000202020536982
S113102C6D6F6E2044696365003C2D2D2D2050722C
S113103C6573732053746172740020202053696D9E
S10B104C6F6E205361797300FB
S903018873
