:100000000C943B000C9458000C9458000C9458002D
:100010000C9458000C94C7020C9458000C9458008F
:100020000C9458000C9458000C9458000C94230322
:100030000C9458000C9458000C9458000C945800E0
:100040000C9458000C9458000C9458000C945800D0
:100050000C9458000C9458000C9458000C945800C0
:100060000C9458000C9458006F01730177017B01C8
:100070007F018301870111241FBECFEFD8E0DEBFCF
:10008000CDBF11E0A0E0B1E0E6E2FEE002C00590E5
:100090000D92A838B107D9F721E0A8E8B1E001C076
:1000A0001D92AB3AB207E1F70E94A7020C94110728
:1000B0000C94000028B1982F96959695392F3C7393
:1000C000232B28B928B1936C922398B998B19E7FBD
:1000D00098B998B1926098B9EFE9FFE03197F1F7DC
:1000E00000C0000098B19D7F98B9EFE9FFE031971B
:1000F000F1F700C0000028B190E0880F991F880F29
:10010000991F982F9C73922B98B998B1836C89236F
:1001100088B988B1826088B98FE99FE00197F1F7CB
:1001200000C0000088B18D7F88B9EFE9FFE031970A
:10013000F1F700C0000008958CE387B987B18360B0
:1001400087B988E088B988B1826088B988B18E7F24
:1001500088B98FE99FE00197F1F700C0000088B1EE
:100160008D7F88B98FE99FE00197F1F700C000000B
:1001700088E20E945A008FE99FE00197F1F700C0E2
:1001800000008FE00E945A008FE99FE00197F1F78D
:1001900000C0000080E80E945A00089528B1982FFE
:1001A00096959695392F3C73232B28B928B1936CDB
:1001B000922398B998B1916098B998B1926098B922
:1001C000EFE3FFE13197F1F700C0000098B19D7FA8
:1001D00098B9EFE3FFE13197F1F700C0000028B1D3
:1001E00090E0880F991F880F991F982F9C73922B6E
:1001F00098B998B1836C892388B988B1826088B92D
:100200008FE39FE10197F1F700C0000088B18D7F77
:1002100088B9EFE3FFE13197F1F700C000000895DE
:100220000F931F93CF93DF938C01C0E0D0E003C006
:100230000E94CE002196F801EC0FFD1F80818111F4
:10024000F7CFDF91CF911F910F91089581E00E9428
:100250005A008FE19EE40197F1F700C00000089575
:1002600020E4829FC00111248068860F0E945A00FA
:100270008FEF90E722E0815090402040E1F700C0EE
:1002800000000895109280008AE0809381008FEC36
:1002900097E0909389008093880082E080936F00BC
:1002A0000895F89480918A0190918B017894089533
:1002B000E8E6F0E0808184608083EDE6F0E0808114
:1002C0008FEF808389B18093AA01089590E08730F1
:1002D000910500F5FC01EC5CFF4F0C944E0385B1D9
:1002E000846085B917C085B1826085B913C085B1B6
:1002F000866085B90FC085B1816085B90BC085B1B5
:10030000856085B907C085B1836085B903C085B1B3
:10031000876085B961110AC02FEF84E39CE021500A
:1003200080409040E1F700C0000009C02FEF87EA4D
:1003300091E6215080409040E1F700C0000085B177
:100340008B7F85B985B18D7F85B985B18E7F85B964
:100350000895CF93DF930E945101909306018093FB
:1003600005010E94B903C0E0D0E00CC00E94B403B4
:1003700067E070E00E943A03FE01E457FE4F8F5F92
:1003800080832196CE31D10588F3DF91CF910895F6
:100390000F931F93CF93DF93CDB7DEB72B970FB695
:1003A000F894DEBF0FBECDBF8BE0EEE2F1E08E0130
:1003B0000F5F1F4FD80101900D928A95E1F7809150
:1003C00004011F928F931F930F9387E091E09F93F7
:1003D0008F931F930F930E94C4030E94260160E035
:1003E00080E00E9430018CE091E00E94100160E00A
:1003F00081E00E943001C8010E9410012FEF89E6C0
:1004000098E1215080409040E1F700C000000FB615
:10041000F894DEBF0FBECDBF00E010E015C0F801BC
:10042000E457FE4F80818823B1F060E081500E9444
:1004300066019FEF26E181E1915020408040E1F785
:1004400000C000000F5F1F4F8091040190E00296F2
:100450000817190724F360E080E00E9430018DE165
:1004600091E00E9410012B960FB6F894DEBF0FBEEC
:10047000CDBFDF91CF911F910F9108951092890107
:1004800081E080930401109288010E94A9010895DF
:10049000CF93C82F60E080E00E9430012C2F30E025
:1004A000E0918901F0E0E457FE4F808190E00197F0
:1004B00028173907F9F489E391E00E94100160E000
:1004C0008C2F0E946601809189018F5F8093890142
:1004D00090E040910401242F30E02E5F3F4F8217BF
:1004E000930799F54F5F40930401109289010E9490
:1004F000C8012BC08AE491E00E941001E0918901BB
:10050000F0E0E457FE4F808161E081500E94660177
:100510002FEF83ED90E3215080409040E1F700C041
:1005200000000E943E020E94260160E080E00E94DE
:1005300030018BE591E00E94100160E081E00E94B3
:10054000300189E691E00E941001CF9108958FE07B
:1005500084B915B81AB88FEF8BB90E94420178940C
:100560000E9458010E949C000E94260160E080E0E9
:100570000E9430018AE791E00E94100160E081E072
:100580000E94300189E691E00E941001FFCF1F9286
:100590000F920FB60F9211241F932F933F934F93F7
:1005A0005F936F937F938F939F93AF93BF93CF93FB
:1005B000DF93EF93FF9319B1D091AA01D127109344
:1005C000AA01C0E02AC08D2F90E00C2E02C09595A4
:1005D00087950A94E2F780FF1FC0812F90E00C2ED0
:1005E00002C0959587950A94E2F780FD15C0C73043
:1005F00061F48091880181110FC081E080938801AE
:100600000E94A9010E94C80107C080918801882327
:1006100019F08C2F0E944802CF5FC830A0F2FF91E2
:10062000EF91DF91CF91BF91AF919F918F917F918A
:100630006F915F914F913F912F911F910F900FBE3E
:100640000F901F9018951F920F920FB60F921124C2
:100650008F939F9380918A0190918B010196909343
:100660008B0180938A019F918F910F900FBE0F9005
:100670001F90189597FB072E16F4009407D077FD6E
:1006800009D00E94540307FC05D03EF49095819553
:100690009F4F0895709561957F4F0895EE0FFF1F4E
:1006A0000590F491E02D0994AA1BBB1B51E107C0F2
:1006B000AA1FBB1FA617B70710F0A61BB70B881FF2
:1006C000991F5A95A9F780959095BC01CD01089581
:1006D0008F929F92AF92BF92CF92DF92EF92FF9252
:1006E000CF93DF93EC01688179818A819B816115C9
:1006F00071058105910521F464E279ED8BE597E0C0
:100700002DE133EF41E050E00E94770649015A01A4
:100710009B01AC01A7EAB1E40E9496066B017C0143
:10072000ACEEB4EFA50194010E94A406DC01CB015C
:100730008C0D9D1DAE1DBF1DB7FF03C00197A10904
:10074000B04888839983AA83BB839F77DF91CF9139
:10075000FF90EF90DF90CF90BF90AF909F908F90E1
:1007600008950E946803089580E091E00E94680364
:100770000895A0E0B0E08093000190930101A09360
:100780000201B09303010895AEE0B0E0EAECF3E0BB
:100790000C94B7060D891E8986E08C831A83098321
:1007A0008FEF9FE79E838D83AE01475E5F4F6F891A
:1007B000788DCE0101960E94E603EF81F885E00F67
:1007C000F11F10822E96E4E00C94D306ABE0B0E06B
:1007D000ECEEF3E00C94A9066C017B018A01FC01AC
:1007E00017821682838181FFCCC1CE0101963C0124
:1007F000F6019381F70193FD859193FF81917F012C
:10080000882309F4BAC1853239F493FD859193FFA9
:1008100081917F01853229F4B60190E00E94DD05C7
:10082000E7CF912C212C312CFFE1F315D8F08B323E
:1008300079F038F4803279F08332A1F4232D2061ED
:100840001DC08D3261F0803369F4232D216016C004
:10085000832D8260382EE32DE4603E2E2AC0F32DD6
:10086000F8601DC037FC2DC020ED280F2A3040F065
:100870008E32B9F436FC81C1232D2064322E19C08A
:1008800036FE06C08AE0989E200D1124922E11C0DB
:10089000EAE02E9E200D1124222EF32DF0623F2E31
:1008A00008C08C3621F4832D8068382E02C088362B
:1008B00041F4F70193FD859193FF81917F018111AF
:1008C000B3CF982F9F7D9554933028F40C5F1F4F22
:1008D0009FE399830DC0833631F0833771F0833500
:1008E00009F059C021C0F801808189830E5F1F4F34
:1008F00088248394912C530113C02801F2E04F0EF9
:10090000511CF801A080B18036FE03C0692D70E053
:1009100002C06FEF7FEFC5010E94D2054C0182013A
:10092000F32DFF773F2E16C0280122E0420E511C06
:10093000F801A080B18036FE03C0692D70E002C0CE
:100940006FEF7FEFC5010E94C7054C01F32DF068E2
:100950003F2E820133FC1BC0822D90E08816990641
:10096000B0F4B60180E290E00E94DD052A94F4CF55
:10097000F50137FC859137FE81915F01B60190E06A
:100980000E94DD0521102A9421E0821A9108811429
:10099000910471F7E8C0843611F0893641F5F80109
:1009A00037FE07C060817181828193810C5F1F4F88
:1009B00008C060817181072E000C880B990B0E5FB7
:1009C0001F4FF32DFF763F2E97FF09C0909580951E
:1009D000709561957F4F8F4F9F4FF0683F2E2AE0B3
:1009E00030E0A3010E941906882E861845C085377D
:1009F00031F4232D2F7EB22E2AE030E025C0932D36
:100A0000997FB92E8F36C1F018F4883579F0B5C0CA
:100A1000803719F0883721F0B0C0E92FE061BE2E91
:100A2000B4FE0DC0FB2DF460BF2E09C034FE0AC019
:100A3000292F2660B22E06C028E030E005C020E154
:100A400030E002C020E132E0F801B7FE07C060816B
:100A50007181828193810C5F1F4F06C0608171811B
:100A600080E090E00E5F1F4FA3010E941906882EC0
:100A70008618FB2DFF773F2E36FE0DC0232D2E7FCF
:100A8000A22E891458F434FE0BC032FC09C0832D09
:100A90008E7EA82E05C0B82CA32C03C0B82C01C094
:100AA000B92CA4FE0FC0FE01E80DF11D808180333A
:100AB00021F49A2D997EA92E09C0A2FE06C0B394F6
:100AC000B39404C08A2D867809F0B394A3FC11C0B6
:100AD000A0FE06C0B21488F4280C922C9B180EC0FD
:100AE000B21460F4B60180E290E00E94DD05B39498
:100AF000F7CFB21418F42B1802C0982C212CA4FEA6
:100B000010C0B60180E390E00E94DD05A2FE17C090
:100B1000A1FC03C088E790E002C088E590E0B60140
:100B20000CC08A2D867859F0A1FE02C08BE201C06C
:100B300080E2A7FC8DE2B60190E00E94DD058914F9
:100B400038F4B60180E390E00E94DD059A94F7CF77
:100B50008A94F301E80DF11D8081B60190E00E94B6
:100B6000DD058110F5CF222009F442CEB60180E2E6
:100B700090E00E94DD052A94F6CFF60186819781E8
:100B800002C08FEF9FEF2B96E2E10C94C506FC01AB
:100B90000590615070400110D8F7809590958E0FA8
:100BA0009F1F0895FC016150704001900110D8F71B
:100BB000809590958E0F9F1F08950F931F93CF934D
:100BC000DF93FB01238121FD03C08FEF9FEF2CC03A
:100BD00022FF16C046815781248135814217530771
:100BE00044F4A081B1819D012F5F3F4F3183208369
:100BF0008C93268137812F5F3F4F3783268314C024
:100C00008B01EC01FB010084F185E02D0995892B16
:100C1000E1F6D80116968D919C911797019617963B
:100C20009C938E931697CE01DF91CF911F910F91D8
:100C30000895FA01AA27283051F1203181F1E89472
:100C40006F936E7F6E5F7F4F8F4F9F4FAF4FB1E0BF
:100C50003ED0B4E03CD0670F781F891F9A1FA11DBA
:100C6000680F791F8A1F911DA11D6A0F711D811DBB
:100C7000911DA11D20D009F468943F912AE0269F80
:100C800011243019305D3193DEF6CF010895462FDF
:100C90004770405D4193B3E00FD0C9F7F6CF462FC0
:100CA0004F70405D4A3318F0495D31FD4052419329
:100CB00002D0A9F7EACFB4E0A695979587957795E6
:100CC0006795BA95C9F700976105710508959B016D
:100CD000AC010A2E06945795479537952795BA95F6
:100CE000C9F7620F731F841F951FA01D0895052E5D
:100CF00097FB1EF400940E948E0657FD07D00E94B9
:100D0000E00607FC03D04EF40C948E0650954095F7
:100D1000309521953F4F4F4F5F4F089590958095A7
:100D2000709561957F4F8F4F9F4F08950E940207E6
:100D3000A59F900DB49F900DA49F800D911D11242F
:100D40000895B7FF0C9496060E949606821B930B9B
:100D500008952F923F924F925F926F927F928F925F
:100D60009F92AF92BF92CF92DF92EF92FF920F933A
:100D70001F93CF93DF93CDB7DEB7CA1BDB0B0FB644
:100D8000F894DEBF0FBECDBF09942A883988488801
:100D90005F846E847D848C849B84AA84B984C88497
:100DA000DF80EE80FD800C811B81AA81B981CE0F8E
:100DB000D11D0FB6F894DEBF0FBECDBFED01089573
:100DC000A1E21A2EAA1BBB1BFD010DC0AA1FBB1F4F
:100DD000EE1FFF1FA217B307E407F50720F0A21BC1
:100DE000B30BE40BF50B661F771F881F991F1A942E
:100DF00069F760957095809590959B01AC01BD0158
:100E0000CF010895A29FB001B39FC001A39F700DB1
:100E1000811D1124911DB29F700D811D1124911D02
:060E20000895F894FFCFD5
:100E260001000000010100257325640050726573FE
:100E36007461206174656E63696F6E2100202020E5
:100E460020202020476F2120202020202000202045
:100E56002020526F6E6461200020202020204269ED
:100E6600656E212020202020200020202047414D93
:100E760045204F564552212020200020202053692E
:100E86006D6F6E2044696365003C2D2D2D205072D8
:100E96006573732053746172740020202053696D4A
:080EA6006F6E205361797300A7
:0400000500800188EE
:00000001FF
