S026000050726F796563746F206465204D6963726F636F6E74726F6C61646F7265732E7372656327
S11300000C943B000C9458000C9458000C94580029
S11300100C9458000C94CE040C9458000C94580082
S11300200C9458000C9458000C9458000C946505DA
S11300300C9458000C9458000C9458000C945800DC
S11300400C9458000C9458000C9458000C945800CC
S11300500C9458000C9458000C9458000C945800BC
S11300600C9458000C945800CB01E70103021F02C2
S11300703B025702730211241FBECFEFD8E0DEBF4C
S1130080CDBF11E0A0E0B1E0EAE0F3E102C00590E9
S11300900D92A63BB107D9F721E0A6EBB1E001C070
S11300A01D92AC3DB207E1F70E94B6040C9483099B
S11300B00C94000082959295907F9827807F9827D2
S11300C09C0140E050E060E472E48FE090E00E9424
S11300D09005215031093093890020938800E0E88D
S11300E0F0E08081806480830895E0E8F0E080811E
S11300F08F7B8083089528B1982F96959695392FF4
S11301003C73232B28B928B1936C922398B998B1E6
S11301109E7F98B998B1926098B9EFE9FFE0319762
S1130120F1F700C0000098B19D7F98B9EFE9FFE0B6
S11301303197F1F700C0000028B190E0880F991FB3
S1130140880F991F982F9C73922B98B998B1836C40
S1130150892388B988B1826088B98FE99FE00197C3
S1130160F1F700C0000088B18D7F88B9EFE9FFE0A6
S11301703197F1F700C0000008958CE387B987B187
S1130180836087B988E088B988B1826088B988B10A
S11301908E7F88B98FE99FE00197F1F700C00000D6
S11301A088B18D7F88B98FE99FE00197F1F700C08E
S11301B0000088E20E947B008FE99FE00197F1F73D
S11301C000C000008FE00E947B008FE99FE0019750
S11301D0F1F700C0000080E80E947B00089528B178
S11301E0982F96959695392F3C73232B28B928B1CF
S11301F0936C922398B998B1916098B998B1926030
S113020098B9EFE3FFE13197F1F700C0000098B12E
S11302109D7F98B9EFE3FFE13197F1F700C000004B
S113022028B190E0880F991F880F991F982F9C730D
S1130230922B98B998B1836C892388B988B182606C
S113024088B98FE39FE10197F1F700C0000088B1FE
S11302508D7F88B9EFE3FFE13197F1F700C000002B
S113026008950F931F93CF93DF938C01C0E0D0E0E8
S113027003C00E94EF002196F801EC0FFD1F80815E
S11302808111F7CFDF91CF911F910F91089581E0F4
S11302900E947B008FE19EE40197F1F700C000000B
S11302A0089520E4829FC00111248068860F0E9473
S11302B07B008FEF90E722E0815090402040E1F7EF
S11302C000C000000895F999FECF92BD81BD8FB39F
S11302D081608FBB80B50895F999FECF92BD81BD31
S11302E060BD8FB384608FBB8FB382608FBB089572
S11302F01F93CF93DF93EC01172F0E946C01612FA2
S1130300CE0101960E946C01DF91CF911F91089557
S11303101F93CF93DF93EC010E946301182FCE014A
S113032001960E94630190E0982F8827812BDF912A
S1130330CF911F910895109280008AE080938100EC
S11303408FEC97E0909389008093880082E08093FB
S11303506F000895F8948091BB019091BC0178944A
S11303600895E8E6F0E0808184608083EDE6F0E0C3
S113037080818FEF808389B18093DB010895CF93CF
S1130380C62F90E08730910508F0C8C0FC01EC5CF2
S1130390FF4F0C94B20585B1846085B981E490E087
S11303A00E945A002FEF89E698E121508040904046
S11303B0E1F700C000000E9475002FEF81EE94E089
S11303C0215080409040E1F700C00000A7C085B1F3
S11303D0886085B989E490E00E945A002FEF89E68D
S11303E098E1215080409040E1F700C000000E9455
S11303F075002FEF81EE94E0215080409040E1F7AA
S113040000C000008BC085B18C6085B982E590E0A6
S11304100E945A002FEF89E698E1215080409040D5
S1130420E1F700C000000E9475002FEF81EE94E018
S1130430215080409040E1F700C000006FC085B1BA
S1130440816085B987E590E00E945A002FEF89E624
S113045098E1215080409040E1F700C000000E94E4
S113046075002FEF81EE94E0215080409040E1F739
S113047000C0000053C085B1856085B982E690E074
S11304800E945A002FEF89E698E121508040904065
S1130490E1F700C000000E9475002FEF81EE94E0A8
S11304A0215080409040E1F700C0000037C085B182
S11304B0896085B98EE690E00E945A002FEF89E6A4
S11304C098E1215080409040E1F700C000000E9474
S11304D075002FEF81EE94E0215080409040E1F7C9
S11304E000C000001BC085B18D6085B98BE790E02A
S11304F00E945A002FEF89E698E1215080409040F5
S1130500E1F700C000000E9475002FEF81EE94E037
S1130510215080409040E1F700C00000C1110AC0A2
S11305202FEF84E39CE0215080409040E1F700C02D
S1130530000009C02FEF87EA91E6215080409040E7
S1130540E1F700C0000085B18B7F85B985B1877F55
S113055085B985B18E7F85B9CF910895CF93DF9307
S11305600E94AA0190931801809317010E941D060E
S1130570C0E0D0E00CC00E94180667E070E00E9462
S11305807C05FE01E354FE4F8F5F80832196CE31BC
S1130590D10588F3DF91CF9108950F931F93CF93E3
S11305A0DF93CDB7DEB72B970FB6F894DEBF0FBE3F
S11305B0CDBF8BE0E0E4F1E08E010F5F1F4FD80167
S11305C001900D928A95E1F7809116011F928F9305
S11305D01F930F9389E191E09F938F931F930F9340
S11305E00E9458060E94470160E080E00E94510189
S11305F08EE191E00E94310160E081E00E945101AE
S1130600C8010E9431012FEF89E698E12150804012
S11306109040E1F700C000000FB6F894DEBF0FBEB3
S1130620CDBF00E010E015C0F801E354FE4F808117
S11306308823B1F060E081500E94BF019FEF26E162
S113064081E1915020408040E1F700C000000F5F3D
S11306501F4F8091160190E002960817190724F3A2
S113066060E080E00E9451018FE291E00E9431013C
S11306702B960FB6F894DEBF0FBECDBFDF91CF919E
S11306801F910F9108958091B9018F938091B801C2
S11306908F938BE491E09F938F931F9282E18F93CA
S11306A084E091E09F938F930E9428060E94470163
S11306B060E080E00E9451018EE591E00E943101EA
S11306C060E081E00E94510184E091E00E943101E8
S11306D08DB79EB708960FB6F8949EBF0FBE8DBF18
S11306E00895CF92DF92EF92FF920F931F93CF93CF
S11306F0DF93EC0180E090E00E9488018C0182E0AD
S113070090E00E9488017C0184E090E00E948801CE
S11307106C0186E090E00E9488010C171D07A8F484
S1130720B60186E090E00E947801B70184E090E091
S11307300E947801B80182E090E00E947801BE0135
S113074080E090E00E94780129C0EC16FD0680F458
S1130750B60186E090E00E947801B70184E090E061
S11307600E947801BE0182E090E00E94780116C0E8
S1130770CC16DD0658F4B60186E090E00E947801BC
S1130780BE0184E090E00E94780108C08C179D07A8
S113079028F4BE0186E090E00E947801DF91CF91B9
S11307A01F910F91FF90EF90DF90CF90089580916B
S11307B0160190E00E94710380E090E00E9488019D
S11307C09093B9018093B8011092BA0181E08093AB
S11307D016011092B7010E94AE020895CF93C82F5C
S11307E060E080E00E9451012C2F30E0E091BA01DA
S11307F0F0E0E354FE4F808190E001972817390719
S113080029F58FE99FE00197F1F700C000008CE61D
S113081091E00E94310160E08C2F0E94BF01809121
S1130820BA018F5F8093BA0190E040911601242FA2
S113083030E02E5F3F4F8217930719F54F5F4093C7
S113084016011092BA010E94CD021BC08DE791E0FF
S11308500E943101E091BA01F0E0E354FE4F80813F
S113086061E081500E94BF019FEF23ED80E391502E
S113087020408040E1F700C000000E94D7030E949E
S11308804303CF910895AF92BF92CF92DF92EF923C
S1130890FF920F931F93CF93DF93CDB7DEB7A0974B
S11308A00FB6F894DEBF0FBECDBF80E090E00E948B
S11308B08801182FF92E82E090E00E948801E82E2A
S11308C0A92E84E090E00E948801082FD92E86E0AA
S11308D090E00E948801C82EB92EAF92EF92FF9249
S11308E01F938EE891E09F938F931F9210E11F93C3
S11308F0CE0101967C019F938F930E942806BF929C
S1130900CF92DF920F9382EA91E09F938F931F928D
S11309101F938E010F5E1F4F1F930F930E94280693
S11309200E94470160E080E00E945101C7010E94DB
S1130930310160E081E00E945101C8010E9431014F
S11309400FB6F894DEBF0FBECDBFA0960FB6F894D5
S1130950DEBF0FBECDBFDF91CF911F910F91FF90EE
S1130960EF90DF90CF90BF90AF9008958FE084B95F
S113097015B81AB88FEF8BB90E949B0178940E9426
S1130980B10180E090E00E9488019093B9018093C6
S1130990B8010E94BD000E944303FFCF1F920F9233
S11309A00FB60F9211241F932F933F934F935F938E
S11309B06F937F938F939F93AF93BF93CF93DF9363
S11309C0EF93FF9319B1D091DB01D1271093DB0191
S11309D0C0E064C08D2F90E00C2E02C095958795E1
S11309E00A94E2F780FF59C0812F90E00C2E02C0D8
S11309F0959587950A94E2F780FD4FC0C73081F43E
S1130A008091B701811149C08091B601811145C01F
S1130A1081E08093B7010E94AE020E94CD023DC0E6
S1130A208091B701882321F08C2F0E94EE0335C0FA
S1130A30C1110FC08091B601811106C081E080937D
S1130A40B6010E94430429C01092B6010E944303D8
S1130A5024C0C63011F560E070E080E090E00E94B0
S1130A60780160E070E082E090E00E94780160E04C
S1130A7070E084E090E00E94780160E070E086E03D
S1130A8090E00E94780180E090E00E9488019093B9
S1130A90B9018093B8010E944303CF5FC83008F4C2
S1130AA099CFFF91EF91DF91CF91BF91AF919F913A
S1130AB08F917F916F915F914F913F912F911F91F2
S1130AC00F900FBE0F901F9018951F920F920FB6A4
S1130AD00F9211248F939F938091BB019091BC013D
S1130AE001969093BC018093BB019F918F910F90CD
S1130AF00FBE0F901F90189597FB072E16F40094C5
S1130B0007D077FD09D00E94B80507FC05D03EF454
S1130B10909581959F4F0895709561957F4F0895A5
S1130B20A1E21A2EAA1BBB1BFD010DC0AA1FBB1FED
S1130B30EE1FFF1FA217B307E407F50720F0A21B5F
S1130B40B30BE40BF50B661F771F881F991F1A94CC
S1130B5069F760957095809590959B01AC01BD01F6
S1130B60CF010895EE0FFF1F0590F491E02D099435
S1130B70AA1BBB1B51E107C0AA1FBB1FA617B707BF
S1130B8010F0A61BB70B881F991F5A95A9F78095DB
S1130B909095BC01CD0108958F929F92AF92BF9220
S1130BA0CF92DF92EF92FF92CF93DF93EC016881B3
S1130BB079818A819B81611571058105910521F4F3
S1130BC064E279ED8BE597E02DE133EF41E050E00D
S1130BD00E940B0949015A019B01AC01A7EAB1E447
S1130BE00E942A096B017C01ACEEB4EFA5019401CB
S1130BF00E943809DC01CB018C0D9D1DAE1DBF1D6B
S1130C00B7FF03C00197A109B04888839983AA83D9
S1130C10BB839F77DF91CF91FF90EF90DF90CF90D0
S1130C20BF90AF909F908F9008950E94CC05089537
S1130C3080E091E00E94CC050895A0E0B0E08093AC
S1130C40000190930101A0930201B0930301089560
S1130C50AEE0B0E0EEE2F6E00C944B090D891E899B
S1130C608F89988D26E02C831A83098397FF02C00D
S1130C7080E090E801979E838D83AE01455E5F4FCF
S1130C80698D7A8DCE0101960E947A064D815E812E
S1130C9057FD0AC02F813885421753070CF49A0177
S1130CA0F801E20FF31F10822E96E4E00C9467091A
S1130CB0AEE0B0E0EEE5F6E00C944B090D891E8938
S1130CC086E08C831A8309838FEF9FE79E838D834D
S1130CD0AE01475E5F4F6F89788DCE0101960E9409
S1130CE07A06EF81F885E00FF11F10822E96E4E07A
S1130CF00C946709ABE0B0E0E0E8F6E00C943D0941
S1130D006C017B018A01FC0117821682838181FFB9
S1130D10CCC1CE0101963C01F6019381F70193FD0C
S1130D20859193FF81917F01882309F4BAC18532AB
S1130D3039F493FD859193FF81917F01853229F4E4
S1130D40B60190E00E947108E7CF912C212C312C40
S1130D50FFE1F315D8F08B3279F038F4803279F072
S1130D608332A1F4232D20611DC08D3261F08033C4
S1130D7069F4232D216016C0832D8260382EE32D63
S1130D80E4603E2E2AC0F32DF8601DC037FC2DC050
S1130D9020ED280F2A3040F08E32B9F436FC81C1A0
S1130DA0232D2064322E19C036FE06C08AE0989E98
S1130DB0200D1124922E11C0EAE02E9E200D112444
S1130DC0222EF32DF0623F2E08C08C3621F4832DA1
S1130DD08068382E02C0883641F4F70193FD85916E
S1130DE093FF81917F018111B3CF982F9F7D9554FB
S1130DF0933028F40C5F1F4F9FE399830DC0833613
S1130E0031F0833771F0833509F059C021C0F801FE
S1130E10808189830E5F1F4F88248394912C530112
S1130E2013C02801F2E04F0E511CF801A080B180DC
S1130E3036FE03C0692D70E002C06FEF7FEFC5017D
S1130E400E9466084C018201F32DFF773F2E16C0E5
S1130E50280122E0420E511CF801A080B18036FE28
S1130E6003C0692D70E002C06FEF7FEFC5010E94DF
S1130E705B084C01F32DF0683F2E820133FC1BC04C
S1130E80822D90E088169906B0F4B60180E290E0D5
S1130E900E9471082A94F4CFF50137FC859137FE3E
S1130EA081915F01B60190E00E94710821102A949B
S1130EB021E0821A91088114910471F7E8C0843604
S1130EC011F0893641F5F80137FE07C06081718160
S1130ED0828193810C5F1F4F08C060817181072E4E
S1130EE0000C880B990B0E5F1F4FF32DFF763F2EDE
S1130EF097FF09C090958095709561957F4F8F4FAE
S1130F009F4FF0683F2E2AE030E0A3010E94AD0815
S1130F10882E861845C0853731F4232D2F7EB22EB6
S1130F202AE030E025C0932D997FB92E8F36C1F089
S1130F3018F4883579F0B5C0803719F0883721F076
S1130F40B0C0E92FE061BE2EB4FE0DC0FB2DF460ED
S1130F50BF2E09C034FE0AC0292F2660B22E06C057
S1130F6028E030E005C020E130E002C020E132E0BA
S1130F70F801B7FE07C060817181828193810C5FA3
S1130F801F4F06C06081718180E090E00E5F1F4FAB
S1130F90A3010E94AD08882E8618FB2DFF773F2EF3
S1130FA036FE0DC0232D2E7FA22E891458F434FE54
S1130FB00BC032FC09C0832D8E7EA82E05C0B82C30
S1130FC0A32C03C0B82C01C0B92CA4FE0FC0FE0191
S1130FD0E80DF11D8081803321F49A2D997EA92E8C
S1130FE009C0A2FE06C0B394B39404C08A2D8678C7
S1130FF009F0B394A3FC11C0A0FE06C0B21488F497
S1131000280C922C9B180EC0B21460F4B60180E236
S113101090E00E947108B394F7CFB21418F42B181F
S113102002C0982C212CA4FE10C0B60180E390E0ED
S11310300E947108A2FE17C0A1FC03C088E790E0DB
S113104002C088E590E0B6010CC08A2D867859F07C
S1131050A1FE02C08BE201C080E2A7FC8DE2B601D2
S113106090E00E947108891438F4B60180E390E09E
S11310700E9471089A94F7CF8A94F301E80DF11D48
S11310808081B60190E00E9471088110F5CF222082
S113109009F442CEB60180E290E00E9471082A94DD
S11310A0F6CFF6018681978102C08FEF9FEF2B96D2
S11310B0E2E10C945909FC01059061507040011063
S11310C0D8F7809590958E0F9F1F0895FC0161506D
S11310D0704001900110D8F7809590958E0F9F1F56
S11310E008950F931F93CF93DF93FB01238121FD79
S11310F003C08FEF9FEF2CC022FF16C0468157819B
S1131100248135814217530744F4A081B1819D01A4
S11311102F5F3F4F318320838C93268137812F5F4C
S11311203F4F3783268314C08B01EC01FB010084FD
S1131130F185E02D0995892BE1F6D80116968D915C
S11311409C911797019617969C938E931697CE01B0
S1131150DF91CF911F910F910895FA01AA272830AA
S113116051F1203181F1E8946F936E7F6E5F7F4F70
S11311708F4F9F4FAF4FB1E03ED0B4E03CD0670FEC
S1131180781F891F9A1FA11D680F791F8A1F911D3F
S1131190A11D6A0F711D811D911DA11D20D009F48F
S11311A068943F912AE0269F11243019305D3193D1
S11311B0DEF6CF010895462F4770405D4193B3E0BA
S11311C00FD0C9F7F6CF462F4F70405D4A3318F061
S11311D0495D31FD4052419302D0A9F7EACFB4E012
S11311E0A6959795879577956795BA95C9F70097CA
S11311F06105710508959B01AC010A2E069457956B
S1131200479537952795BA95C9F7620F731F841FC1
S1131210951FA01D0895052E97FB1EF400940E94AF
S1131220220957FD07D00E94900507FC03D04EF415
S11312300C94220950954095309521953F4F4F4F7E
S11312405F4F089590958095709561957F4F8F4F6E
S11312509F4F08950E947409A59F900DB49F900D0F
S1131260A49F800D911D11240895B7FF0C942A09A1
S11312700E942A09821B930B08952F923F924F924A
S11312805F926F927F928F929F92AF92BF92CF9212
S1131290DF92EF92FF920F931F93CF93DF93CDB71B
S11312A0DEB7CA1BDB0B0FB6F894DEBF0FBECDBF93
S11312B009942A88398848885F846E847D848C8464
S11312C09B84AA84B984C884DF80EE80FD800C816D
S11312D01B81AA81B981CE0FD11D0FB6F894DEBF50
S11312E00FBECDBFED010895A29FB001B39FC00111
S11312F0A39F700D811D1124911DB29F700D811D3E
S10D13001124911D0895F894FFCF05
S113130A010000003C2D506C6179202053636F72F8
S113131A653A00000000010100257325640050723B
S113132A65737461206174656E63696F6E21002050
S113133A202020202020476F212020202020200048
S113134A20202020526F6E646120003C2D506C6175
S113135A79202053636F72653A2530327500202054
S113136A2053696D6F6E2053617973002020202009
S113137A204269656E212020202020200020202080
S113138A47414D45204F5645522120202000202315
S113139A313A253032752020202023323A25303242
S11313AA75002023333A2530327520202020233437
S10913BA3A2530327500F3
S90301B744
