S026000050726F796563746F206465204D6963726F636F6E74726F6C61646F7265732E7372656327
S11300000C943B000C9458000C9458000C94580029
S11300100C9458000C94F7010C9458000C9458005C
S11300200C9458000C9458000C9458000C945800EC
S11300300C9458000C9458000C9458000C945800DC
S11300400C9458000C9458000C9458000C945800CC
S11300500C9458000C9458000C9458000C945800BC
S11300600C9458000C9458005A016A017A018D01CD
S11300709D01B001C30111241FBECFEFD8E0DEBF44
S1130080CDBF11E0A0E0B1E0E2E9F4E002C00590E8
S11300900D92AA31B107D9F721E0AAE1B1E001C07C
S11300A01D92AB31B207E1F70E94D9010C944702CB
S11300B00C94000028B1982F96959695392F3C738F
S11300C0232B28B928B1936C922398B998B19E7FB9
S11300D098B998B1926098B9EFE9FFE03197F1F7D8
S11300E000C0000098B19D7F98B9EFE9FFE0319717
S11300F0F1F700C0000028B190E0880F991F880F25
S1130100991F982F9C73922B98B998B1836C89236B
S113011088B988B1826088B98FE99FE00197F1F7C7
S113012000C0000088B18D7F88B9EFE9FFE0319706
S1130130F1F700C0000008958CE387B987B18360AC
S113014087B988E088B988B1826088B988B18E7F20
S113015088B98FE99FE00197F1F700C0000088B1EA
S11301608D7F88B98FE99FE00197F1F700C0000007
S113017088E20E945A008FE99FE00197F1F700C0DE
S113018000008FE00E945A008FE99FE00197F1F789
S113019000C0000080E80E945A00089528B1982FFA
S11301A096959695392F3C73232B28B928B1936CD7
S11301B0922398B998B1916098B998B1926098B91E
S11301C0EFE3FFE13197F1F700C0000098B19D7FA4
S11301D098B9EFE3FFE13197F1F700C0000028B1CF
S11301E090E0880F991F880F991F982F9C73922B6A
S11301F098B998B1836C892388B988B1826088B929
S11302008FE39FE10197F1F700C0000088B18D7F73
S113021088B9EFE3FFE13197F1F700C000000895DA
S11302200F931F93CF93DF938C01C0E0D0E003C002
S11302300E94CE002196F801EC0FFD1F80818111F0
S1130240F7CFDF91CF911F910F91089581E00E9424
S11302505A008FE19EE40197F1F700C00000089571
S113026020E4829FC00111248068860F0E945A00F6
S11302708FEF90E722E0815090402040E1F700C0EA
S113028000000895E8E6F0E0808184608083EDE674
S1130290F0E080818FEF808389B180931A01089503
S11302A090E08730910508F083C0FC01EC5CFF4FBF
S11302B00C94410285B1846085B92FEF83ED90E3FE
S11302C0215080409040E1F700C0000085B18B7F51
S11302D085B9089585B1826085B92FEF83ED90E3E8
S11302E0215080409040E1F700C0000085B18D7F2F
S11302F085B9089585B1866085B92FEF83ED90E3C4
S1130300215080409040E1F700C0000085B18B7F10
S113031085B985B18D7F85B9089585B1816085B929
S11303202FEF83ED90E3215080409040E1F700C02F
S1130330000085B18E7F85B9089585B1856085B942
S11303402FEF83ED90E3215080409040E1F700C00F
S1130350000085B18B7F85B985B18E7F85B90895FD
S113036085B1836085B92FEF83ED90E32150804000
S11303709040E1F700C0000085B18D7F85B985B15B
S11303808E7F85B9089585B1876085B92FEF83ED98
S113039090E3215080409040E1F700C0000085B117
S11303A08B7F85B985B18D7F85B985B18E7F85B900
S11303B008958FE084B915B81AB88FEF8BB9789483
S11303C00E9442010E949C000E94260160E080E09D
S11303D00E94300180E091E00E94100160E081E021
S11303E00E9430018BE091E00E941001FFCF1F9228
S11303F00F920FB60F9211241F932F933F934F9395
S11304005F936F937F938F939F93AF93BF93CF9398
S1130410DF93EF93FF9319B1D0911A01D127109371
S11304201A01C0E018C08D2F90E00C2E02C09595E3
S113043087950A94E2F780FF0DC0812F90E00C2E7F
S113044002C0959587950A94E2F780FD03C08C2F2E
S11304500E945001CF5FC83030F3FF91EF91DF91DC
S1130460CF91BF91AF919F918F917F916F915F9148
S11304704F913F912F911F910F900FBE0F901F909E
S11304801895EE0FFF1F0590F491E02D0994F89450
S1050490FFCF98
S113049253696D6F6E205361797300507265737383
S10D04A22053746172742E2E0000C2
S9030000FC
