S026000050726F796563746F206465204D6963726F636F6E74726F6C61646F7265732E7372656327
S11300000C943B000C9458000C9458000C94580029
S11300100C9458000C94B5020C9458000C9458009D
S11300200C9458000C9458000C9458000C945800EC
S11300300C9458000C9458000C9458000C945800DC
S11300400C9458000C9458000C9458000C945800CC
S11300500C9458000C9458000C9458000C945800BC
S11300600C9458000C94580059015D01610165011C
S113007069016D01710111241FBECFEFD8E0DEBF0D
S1130080CDBF11E0A0E0B1E0E4EDFDE002C00590D9
S11300900D92A839B107D9F721E0A8E9B1E001C070
S11300A01D92AB39B207E1F70E9497020C94E8065F
S11300B00C94000028B1982F96959695392F3C738F
S11300C0232B28B928B1936C922398B998B19E7FB9
S11300D098B998B1926098B9EFE9FFE03197F1F7D8
S11300E000C0000098B19D7F98B9EFE9FFE0319717
S11300F0F1F700C0000028B190E0880F991F880F25
S1130100991F982F9C73922B98B998B1836C89236B
S113011088B988B1826088B98FE99FE00197F1F7C7
S113012000C0000088B18D7F88B9EFE9FFE0319706
S1130130F1F700C0000008958CE387B987B18360AC
S113014087B988E088B988B1826088B988B18E7F20
S113015088B98FE99FE00197F1F700C0000088B1EA
S11301608D7F88B98FE99FE00197F1F700C0000007
S113017088E20E945A008FE99FE00197F1F700C0DE
S113018000008FE00E945A008FE99FE00197F1F789
S113019000C0000080E80E945A00089528B1982FFA
S11301A096959695392F3C73232B28B928B1936CD7
S11301B0922398B998B1916098B998B1926098B91E
S11301C0EFE3FFE13197F1F700C0000098B19D7FA4
S11301D098B9EFE3FFE13197F1F700C0000028B1CF
S11301E090E0880F991F880F991F982F9C73922B6A
S11301F098B998B1836C892388B988B1826088B929
S11302008FE39FE10197F1F700C0000088B18D7F73
S113021088B9EFE3FFE13197F1F700C000000895DA
S11302200F931F93CF93DF938C01C0E0D0E003C002
S11302300E94CE002196F801EC0FFD1F80818111F0
S1130240F7CFDF91CF911F910F91089581E00E9424
S11302505A008FE19EE40197F1F700C00000089571
S113026020E4829FC00111248068860F0E945A00F6
S11302708FEF90E722E0815090402040E1F700C0EA
S113028000000895E8E6F0E0808184608083EDE674
S1130290F0E080818FEF808389B180939A01089583
S11302A090E08730910500F5FC01EC5CFF4F0C9465
S11302B0250385B1846085B917C085B1826085B98D
S11302C013C085B1866085B90FC085B1816085B9D9
S11302D00BC085B1856085B907C085B1836085B9D8
S11302E003C085B1876085B961110AC02FEF84E32B
S11302F09CE0215080409040E1F700C0000009C01C
S11303002FEF87EA91E6215080409040E1F700C04A
S1130310000085B18B7F85B985B18D7F85B985B1A5
S11303208E7F85B90895CF93DF93809123019091B7
S113033024018E529B4F90932401809323010E94A9
S11303409003C0E0D0E00CC00E948B0367E070E033
S11303500E941103FE01EB5FFE4F8F5F80832196A5
S1130360CE31D10588F3DF91CF9108950F931F9378
S1130370CF93DF93CDB7DEB72B970FB6F894DEBFDC
S11303800FBECDBF8BE0EBE3F1E08E010F5F1F4F9B
S1130390D80101900D928A95E1F7809104011F9292
S11303A08F931F930F9385E291E09F938F931F93F5
S11303B00F930E949B030E94260160E080E00E944C
S11303C030018AE291E00E94100160E081E00E9425
S11303D03001C8010E9410012FEF89E698E12150F5
S11303E080409040E1F700C000000FB6F894DEBFF3
S11303F00FBECDBF00E010E015C0F801EB5FFE4F6B
S113040080818823B1F060E081500E9450019FEF09
S113041026E181E1915020408040E1F700C00000D6
S11304200F5F1F4F8091040190E00296081719078F
S113043024F32B960FB6F894DEBF0FBECDBFDF9129
S1130440CF911F910F9108951092990181E08093AB
S11304500401109298010E9493010895CF93C82F2C
S11304600E94260160E080E00E9430012C2F30E0E1
S1130470E0919901F0E0EB5FFE4F808190E00197FD
S113048028173907F9F486E491E00E94100160E02E
S11304908C2F0E945001809199018F5F8093990164
S11304A090E040910401242F30E02E5F3F4F8217EB
S11304B09307D9F54F5F40930401109299010E946C
S11304C0B60133C08CE491E00E94100160E081E049
S11304D00E94300189E591E00E941001E0919901A8
S11304E0F0E0EB5FFE4F808161E081500E9450019B
S11304F02FEF83ED90E3215080409040E1F700C05E
S113050000000E9424020E94260160E080E00E9414
S113051030018AE691E00E94100160E081E00E94CF
S1130520300188E791E00E941001CF9108958FE097
S113053084B915B81AB88FEF8BB978940E94420128
S11305400E949C000E94260160E080E00E9430012D
S113055089E891E00E94100160E081E00E9430018E
S113056088E791E00E941001FFCF1F920F920FB60F
S11305700F9211241F932F933F934F935F936F9385
S11305807F938F939F93AF93BF93CF93DF93EF9317
S1130590FF9319B1D0919A01D12710939A01C0E029
S11305A02AC08D2F90E00C2E02C0959587950A9451
S11305B0E2F780FF1FC0812F90E00C2E02C09595BA
S11305C087950A94E2F780FD15C0C73061F48091E5
S11305D0980181110FC081E0809398010E949301DA
S11305E00E94B60107C080919801882319F08C2FCE
S11305F00E942E02CF5FC830A0F2FF91EF91DF91ED
S1130600CF91BF91AF919F918F917F916F915F91A6
S11306104F913F912F911F910F900FBE0F901F90FC
S1130620189597FB072E16F4009407D077FD09D090
S11306300E942B0307FC05D03EF4909581959F4FB3
S11306400895709561957F4F0895EE0FFF1F0590F3
S1130650F491E02D0994AA1BBB1B51E107C0AA1F0A
S1130660BB1FA617B70710F0A61BB70B881F991F4F
S11306705A95A9F780959095BC01CD0108958F9264
S11306809F92AF92BF92CF92DF92EF92FF92CF935D
S1130690DF93EC01688179818A819B816115710501
S11306A08105910521F464E279ED8BE597E02DE174
S11306B033EF41E050E00E944E0649015A019B018C
S11306C0AC01A7EAB1E40E946D066B017C01ACEEBB
S11306D0B4EFA50194010E947B06DC01CB018C0DD3
S11306E09D1DAE1DBF1DB7FF03C00197A109B048F2
S11306F088839983AA83BB839F77DF91CF91FF90EF
S1130700EF90DF90CF90BF90AF909F908F9008951F
S11307100E943F03089580E091E00E943F03089502
S1130720A0E0B0E08093000190930101A093020146
S1130730B09303010895AEE0B0E0E1EAF3E00C9475
S11307408E060D891E8986E08C831A8309838FEFB8
S11307509FE79E838D83AE01475E5F4F6F89788DDF
S1130760CE0101960E94BD03EF81F885E00FF11FD1
S113077010822E96E4E00C94AA06ABE0B0E0E3EC21
S1130780F3E00C9480066C017B018A01FC01178262
S11307901682838181FFCCC1CE0101963C01F60112
S11307A09381F70193FD859193FF81917F018823C4
S11307B009F4BAC1853239F493FD859193FF81918F
S11307C07F01853229F4B60190E00E94B405E7CF99
S11307D0912C212C312CFFE1F315D8F08B3279F0D8
S11307E038F4803279F08332A1F4232D20611DC0C6
S11307F08D3261F0803369F4232D216016C0832D7E
S11308008260382EE32DE4603E2E2AC0F32DF8607A
S11308101DC037FC2DC020ED280F2A3040F08E3249
S1130820B9F436FC81C1232D2064322E19C036FE62
S113083006C08AE0989E200D1124922E11C0EAE091
S11308402E9E200D1124222EF32DF0623F2E08C07F
S11308508C3621F4832D8068382E02C0883641F40A
S1130860F70193FD859193FF81917F018111B3CFAE
S1130870982F9F7D9554933028F40C5F1F4F9FE36E
S113088099830DC0833631F0833771F0833509F0D5
S113089059C021C0F801808189830E5F1F4F8824CD
S11308A08394912C530113C02801F2E04F0E511C84
S11308B0F801A080B18036FE03C0692D70E002C04B
S11308C06FEF7FEFC5010E94A9054C018201F32D52
S11308D0FF773F2E16C0280122E0420E511CF8017A
S11308E0A080B18036FE03C0692D70E002C06FEFB6
S11308F07FEFC5010E949E054C01F32DF0683F2E49
S1130900820133FC1BC0822D90E088169906B0F456
S1130910B60180E290E00E94B4052A94F4CFF50178
S113092037FC859137FE81915F01B60190E00E940A
S1130930B40521102A9421E0821A910881149104AB
S113094071F7E8C0843611F0893641F5F80137FEB5
S113095007C060817181828193810C5F1F4F08C041
S113096060817181072E000C880B990B0E5F1F4F5D
S1130970F32DFF763F2E97FF09C0909580957095D3
S113098061957F4F8F4F9F4FF0683F2E2AE030E0F4
S1130990A3010E94F005882E861845C0853731F4DE
S11309A0232D2F7EB22E2AE030E025C0932D997F8F
S11309B0B92E8F36C1F018F4883579F0B5C0803778
S11309C019F0883721F0B0C0E92FE061BE2EB4FEE3
S11309D00DC0FB2DF460BF2E09C034FE0AC0292FC0
S11309E02660B22E06C028E030E005C020E130E0E9
S11309F002C020E132E0F801B7FE07C060817181D6
S1130A00828193810C5F1F4F06C06081718180E0F9
S1130A1090E00E5F1F4FA3010E94F005882E8618F8
S1130A20FB2DFF773F2E36FE0DC0232D2E7FA22EE9
S1130A30891458F434FE0BC032FC09C0832D8E7E19
S1130A40A82E05C0B82CA32C03C0B82C01C0B92C07
S1130A50A4FE0FC0FE01E80DF11D8081803321F456
S1130A609A2D997EA92E09C0A2FE06C0B394B39410
S1130A7004C08A2D867809F0B394A3FC11C0A0FEAB
S1130A8006C0B21488F4280C922C9B180EC0B21421
S1130A9060F4B60180E290E00E94B405B394F7CF0D
S1130AA0B21418F42B1802C0982C212CA4FE10C0E8
S1130AB0B60180E390E00E94B405A2FE17C0A1FC39
S1130AC003C088E790E002C088E590E0B6010CC05E
S1130AD08A2D867859F0A1FE02C08BE201C080E223
S1130AE0A7FC8DE2B60190E00E94B405891438F4A5
S1130AF0B60180E390E00E94B4059A94F7CF8A94FB
S1130B00F301E80DF11D8081B60190E00E94B40567
S1130B108110F5CF222009F442CEB60180E290E0A4
S1130B200E94B4052A94F6CFF6018681978102C00B
S1130B308FEF9FEF2B96E2E10C949C06FC0105904D
S1130B40615070400110D8F7809590958E0F9F1FCB
S1130B500895FC016150704001900110D8F7809510
S1130B6090958E0F9F1F08950F931F93CF93DF933C
S1130B70FB01238121FD03C08FEF9FEF2CC022FFD7
S1130B8016C046815781248135814217530744F4A6
S1130B90A081B1819D012F5F3F4F318320838C93CE
S1130BA0268137812F5F3F4F3783268314C08B0103
S1130BB0EC01FB010084F185E02D0995892BE1F618
S1130BC0D80116968D919C911797019617969C9330
S1130BD08E931697CE01DF91CF911F910F910895B7
S1130BE0FA01AA27283051F1203181F1E8946F935A
S1130BF06E7F6E5F7F4F8F4F9F4FAF4FB1E03ED000
S1130C00B4E03CD0670F781F891F9A1FA11D680F9D
S1130C10791F8A1F911DA11D6A0F711D811D911DD0
S1130C20A11D20D009F468943F912AE0269F112445
S1130C303019305D3193DEF6CF010895462F4770A9
S1130C40405D4193B3E00FD0C9F7F6CF462F4F7004
S1130C50405D4A3318F0495D31FD4052419302D062
S1130C60A9F7EACFB4E0A695979587957795679508
S1130C70BA95C9F700976105710508959B01AC0108
S1130C800A2E06945795479537952795BA95C9F72F
S1130C90620F731F841F951FA01D0895052E97FBD7
S1130CA01EF400940E94650657FD07D00E94B70603
S1130CB007FC03D04EF40C9465065095409530958E
S1130CC021953F4F4F4F5F4F0895909580957095B4
S1130CD061957F4F8F4F9F4F08950E94D906A59F1E
S1130CE0900DB49F900DA49F800D911D1124089523
S1130CF0B7FF0C946D060E946D06821B930B08953A
S1130D002F923F924F925F926F927F928F929F9217
S1130D10AF92BF92CF92DF92EF92FF920F931F9305
S1130D20CF93DF93CDB7DEB7CA1BDB0B0FB6F894B6
S1130D30DEBF0FBECDBF09942A88398848885F84F6
S1130D406E847D848C849B84AA84B984C884DF8067
S1130D50EE80FD800C811B81AA81B981CE0FD11D4B
S1130D600FB6F894DEBF0FBECDBFED010895A1E22A
S1130D701A2EAA1BBB1BFD010DC0AA1FBB1FEE1F11
S1130D80FF1FA217B307E407F50720F0A21BB30B5C
S1130D90E40BF50B661F771F881F991F1A9469F7D8
S1130DA060957095809590959B01AC01BD01CF0134
S1130DB00895A29FB001B39FC001A39F700D811D30
S1130DC01124911DB29F700D811D1124911D089550
S1070DD0F894FFCFC1
S1130DD401000000010404050605030403070201DD
S1130DE404040504050305070405010405040401BA
S1130DF40505070100257325640050726573746149
S1130E04206174656E63696F6E2100202020205276
S1130E146F6E646120004269656E210020202047C2
S1130E24414D45204F5645520020202046616C6CAC
S1130E346173746521202020200020202053696DD3
S1130E446F6E2044696365003C2D2D2D205072651E
S1130E5473732053746172740020202053696D6F7E
S10B0E646E2053617973000054
S903019863
