S026000050726F796563746F206465204D6963726F636F6E74726F6C61646F7265732E7372656327
S11300000C943B000C9458000C9458000C94580029
S11300100C9458000C94AD040C9458000C945800A3
S11300200C9458000C9458000C9458000C944505FA
S11300300C9458000C9458000C9458000C945800DC
S11300400C9458000C9458000C9458000C945800CC
S11300500C9458000C9458000C9458000C945800BC
S11300600C9458000C945800AE01CA01E601020237
S11300701E023A02560211241FBECFEFD8E0DEBFA3
S1130080CDBF11E0A0E0B1E0EAECF2E102C00590DE
S11300900D92A63BB107D9F721E0A6EBB1E001C070
S11300A01D92AC3DB207E1F70E9494040C946309DD
S11300B00C94000082959295907F9827807F9827D2
S11300C09C0140E050E060E472E48FE090E00E9424
S11300D07005215031093093890020938800E0E8AD
S11300E0F0E08081806480830895E0E8F0E080811E
S11300F08F7B8083089528B1982F96959695392FF4
S11301003C73232B28B928B1936C922398B998B1E6
S11301109E7F98B998B1926098B9EFE9FFE0319762
S1130120F1F700C0000098B19D7F98B9EFE9FFE0B6
S11301303197F1F700C0000028B190E0880F991FB3
S1130140880F991F982F9C73922B98B998B1836C40
S1130150892388B988B1826088B98FE99FE00197C3
S1130160F1F700C0000088B18D7F88B9EFE9FFE0A6
S11301703197F1F700C0000008958CE387B987B187
S1130180836087B988E088B988B1826088B988B10A
S11301908E7F88B98FE99FE00197F1F700C00000D6
S11301A088B18D7F88B98FE99FE00197F1F700C08E
S11301B0000088E20E947B008FE99FE00197F1F73D
S11301C000C000008FE00E947B008FE99FE0019750
S11301D0F1F700C0000080E80E947B00089528B178
S11301E0982F96959695392F3C73232B28B928B1CF
S11301F0936C922398B998B1916098B998B1926030
S113020098B9EFE3FFE13197F1F700C0000098B12E
S11302109D7F98B9EFE3FFE13197F1F700C000004B
S113022028B190E0880F991F880F991F982F9C730D
S1130230922B98B998B1836C892388B988B182606C
S113024088B98FE39FE10197F1F700C0000088B1FE
S11302508D7F88B9EFE3FFE13197F1F700C000002B
S113026008950F931F93CF93DF938C01C0E0D0E0E8
S113027003C00E94EF002196F801EC0FFD1F80815E
S11302808111F7CFDF91CF911F910F91089581E0F4
S11302900E947B008FE19EE40197F1F700C000000B
S11302A0089520E4829FC00111248068860F0E9473
S11302B07B008FEF90E722E0815090402040E1F7EF
S11302C000C000000895F999FECF92BD81BD8FB39F
S11302D081608FBB80B50895F999FECF92BD81BD31
S11302E060BD8FB384608FBB8FB382608FBB089572
S11302F00E946C0108950E94630108951092800089
S11303008AE0809381008FEC97E09093890080933A
S1130310880082E080936F000895F8948091BB0177
S11303209091BC0178940895E8E6F0E080818460BF
S11303308083EDE6F0E080818FEF808389B1809344
S1130340DB010895CF93C62F90E08730910508F024
S1130350C8C0FC01EC5CFF4F0C94920585B184602D
S113036085B981E490E00E945A002FEF89E698E174
S1130370215080409040E1F700C000000E947500C9
S11303802FEF81EE94E0215080409040E1F700C0CF
S11303900000A7C085B1886085B989E490E00E9417
S11303A05A002FEF89E698E1215080409040E1F710
S11303B000C000000E9475002FEF81EE94E02150F0
S11303C080409040E1F700C000008BC085B18C6094
S11303D085B982E590E00E945A002FEF89E698E102
S11303E0215080409040E1F700C000000E94750059
S11303F02FEF81EE94E0215080409040E1F700C05F
S113040000006FC085B1816085B987E590E00E94E6
S11304105A002FEF89E698E1215080409040E1F79F
S113042000C000000E9475002FEF81EE94E021507F
S113043080409040E1F700C0000053C085B1856062
S113044085B982E690E00E945A002FEF89E698E190
S1130450215080409040E1F700C000000E947500E8
S11304602FEF81EE94E0215080409040E1F700C0EE
S1130470000037C085B1896085B98EE690E00E949E
S11304805A002FEF89E698E1215080409040E1F72F
S113049000C000000E9475002FEF81EE94E021500F
S11304A080409040E1F700C000001BC085B18D6022
S11304B085B98BE790E00E945A002FEF89E698E116
S11304C0215080409040E1F700C000000E94750078
S11304D02FEF81EE94E0215080409040E1F700C07E
S11304E00000C1110AC02FEF84E39CE0215080403A
S11304F09040E1F700C0000009C02FEF87EA91E6C1
S1130500215080409040E1F700C0000085B18B7F0E
S113051085B985B1877F85B985B18E7F85B9CF913E
S11305200895CF93DF930E948D01909318018093D7
S113053017010E94FD05C0E0D0E00CC00E94F80540
S113054067E070E00E945C05FE01E354FE4F8F5F9C
S113055080832196CE31D10588F3DF91CF91089520
S11305600F931F93CF93DF93CDB7DEB72B970FB6BF
S1130570F894DEBF0FBECDBF8BE0E0E4F1E08E0166
S11305800F5F1F4FD80101900D928A95E1F780917A
S113059016011F928F931F930F9389E191E09F930C
S11305A08F931F930F930E9438060E94470160E0C7
S11305B080E00E9451018EE191E00E94310160E0EF
S11305C081E00E945101C8010E9431012FEF89E6A8
S11305D098E1215080409040E1F700C000000FB640
S11305E0F894DEBF0FBECDBF00E010E015C0F801E7
S11305F0E354FE4F80818823B1F060E081500E9473
S1130600A2019FEF26E181E1915020408040E1F773
S113061000C000000F5F1F4F8091160190E002960A
S11306200817190724F360E080E00E9451018FE26B
S113063091E00E9431012B960FB6F894DEBF0FBEF5
S1130640CDBFDF91CF911F910F9108958091B90192
S11306508F938091B8018F938BE491E09F938F9354
S11306601F9282E18F9384E091E09F938F930E9485
S113067008060E94470160E080E00E9451018EE577
S113068091E00E94310160E081E00E94510184E028
S113069091E00E9431018DB79EB708960FB6F89489
S11306A09EBF0FBE8DBF0895CF92DF92EF92FF924F
S11306B00F931F93CF93DF93EC0180E090E00E94AF
S11306C07B01082F10E081E090E00E947B01E82E7E
S11306D0F12C82E090E00E947B01C82ED12C83E0B3
S11306E090E00E947B0190E00C171D07A8F4B6016E
S11306F083E090E00E947801B70182E090E00E94DC
S11307007801B80181E090E00E947801BE0180E0A8
S113071090E00E94780129C0EC16FD0680F4B60131
S113072083E090E00E947801B70182E090E00E94AB
S11307307801BE0181E090E00E94780116C0CC16D9
S1130740DD0658F4B60183E090E00E947801BE0112
S113075082E090E00E94780108C08C179D0728F47D
S1130760BE0183E090E00E947801DF91CF911F9158
S11307700F91FF90EF90DF90CF9008958091160134
S113078090E00E94540380E090E00E947B0190E09E
S11307909093B9018093B8011092BA0181E08093DB
S11307A016011092B7010E9491020895CF93C82FA9
S11307B060E080E00E9451012C2F30E0E091BA010A
S11307C0F0E0E354FE4F808190E001972817390749
S11307D029F58FE99FE00197F1F700C000008CE64E
S11307E091E00E94310160E08C2F0E94A20180916F
S11307F0BA018F5F8093BA0190E040911601242FD3
S113080030E02E5F3F4F8217930719F54F5F4093F7
S113081016011092BA010E94B0021BC08DE791E04C
S11308200E943101E091BA01F0E0E354FE4F80816F
S113083061E081500E94A2019FEF23ED80E391507B
S113084020408040E1F700C000000E94BE030E94E7
S11308502603CF910895DF92EF92FF920F931F9397
S1130860CF93DF93CDB7DEB7A0970FB6F894DEBF72
S11308700FBECDBF80E090E00E947B01182F81E085
S113088090E00E947B01F82E82E090E00E947B01C0
S1130890082F83E090E00E947B01D82E1F92FF92E4
S11308A01F921F938EE891E09F938F931F9210E104
S11308B01F93CE0101967C019F938F930E9408069B
S11308C01F92DF921F920F9382EA91E09F938F937E
S11308D01F921F938E010F5E1F4F1F930F930E9451
S11308E008060E94470160E080E00E945101C701B0
S11308F00E94310160E081E00E945101C8010E9420
S113090031010FB6F894DEBF0FBECDBFA0960FB66F
S1130910F894DEBF0FBECDBFDF91CF911F910F9131
S1130920FF90EF90DF9008958FE084B915B81AB85E
S11309308FEF8BB90E947E0178940E94940180E02D
S113094090E00E947B0190E09093B9018093B801FC
S11309500E94BD000E942603FFCF1F920F920FB684
S11309600F9211241F932F933F934F935F936F9391
S11309707F938F939F93AF93BF93CF93DF93EF9323
S1130980FF9319B1D091DB01D1271093DB01C0E0B3
S113099065C08D2F90E00C2E02C0959587950A9422
S11309A0E2F780FF5AC0812F90E00C2E02C095958B
S11309B087950A94E2F780FD50C0C73081F4809196
S11309C0B70181114AC08091B601811146C081E00E
S11309D08093B7010E9491020E94B0023EC08091B0
S11309E0B701882321F08C2F0E94D60336C0C11191
S11309F00FC08091B601811106C081E08093B601D9
S1130A000E942B042AC01092B6010E94260325C01E
S1130A10C63019F560E070E080E090E00E94780153
S1130A2060E070E081E090E00E94780160E070E0B6
S1130A3082E090E00E94780160E070E083E090E062
S1130A400E94780180E090E00E947B0190E0909306
S1130A50B9018093B8010E942603CF5FC83008F41F
S1130A6098CFFF91EF91DF91CF91BF91AF919F917B
S1130A708F917F916F915F914F913F912F911F9132
S1130A800F900FBE0F901F9018951F920F920FB6E4
S1130A900F9211248F939F938091BB019091BC017D
S1130AA001969093BC018093BB019F918F910F900D
S1130AB00FBE0F901F90189597FB072E16F4009405
S1130AC007D077FD09D00E94980507FC05D03EF4B5
S1130AD0909581959F4F0895709561957F4F0895E6
S1130AE0A1E21A2EAA1BBB1BFD010DC0AA1FBB1F2E
S1130AF0EE1FFF1FA217B307E407F50720F0A21BA0
S1130B00B30BE40BF50B661F771F881F991F1A940C
S1130B1069F760957095809590959B01AC01BD0136
S1130B20CF010895EE0FFF1F0590F491E02D099475
S1130B30AA1BBB1B51E107C0AA1FBB1FA617B707FF
S1130B4010F0A61BB70B881F991F5A95A9F780951B
S1130B509095BC01CD0108958F929F92AF92BF9260
S1130B60CF92DF92EF92FF92CF93DF93EC016881F3
S1130B7079818A819B81611571058105910521F433
S1130B8064E279ED8BE597E02DE133EF41E050E04D
S1130B900E94EB0849015A019B01AC01A7EAB1E4A8
S1130BA00E940A096B017C01ACEEB4EFA50194012B
S1130BB00E941809DC01CB018C0D9D1DAE1DBF1DCB
S1130BC0B7FF03C00197A109B04888839983AA831A
S1130BD0BB839F77DF91CF91FF90EF90DF90CF9011
S1130BE0BF90AF909F908F9008950E94AC05089598
S1130BF080E091E00E94AC050895A0E0B0E080930D
S1130C00000190930101A0930201B09303010895A0
S1130C10AEE0B0E0EEE0F6E00C942B090D891E89FD
S1130C208F89988D26E02C831A83098397FF02C04D
S1130C3080E090E801979E838D83AE01455E5F4F0F
S1130C40698D7A8DCE0101960E945A064D815E818E
S1130C5057FD0AC02F813885421753070CF49A01B7
S1130C60F801E20FF31F10822E96E4E00C9447097A
S1130C70AEE0B0E0EEE3F6E00C942B090D891E899A
S1130C8086E08C831A8309838FEF9FE79E838D838D
S1130C90AE01475E5F4F6F89788DCE0101960E9449
S1130CA05A06EF81F885E00FF11F10822E96E4E0DA
S1130CB00C944709ABE0B0E0E0E6F6E00C941D09C3
S1130CC06C017B018A01FC0117821682838181FFFA
S1130CD0CCC1CE0101963C01F6019381F70193FD4D
S1130CE0859193FF81917F01882309F4BAC18532EC
S1130CF039F493FD859193FF81917F01853229F425
S1130D00B60190E00E945108E7CF912C212C312CA0
S1130D10FFE1F315D8F08B3279F038F4803279F0B2
S1130D208332A1F4232D20611DC08D3261F0803304
S1130D3069F4232D216016C0832D8260382EE32DA3
S1130D40E4603E2E2AC0F32DF8601DC037FC2DC090
S1130D5020ED280F2A3040F08E32B9F436FC81C1E0
S1130D60232D2064322E19C036FE06C08AE0989ED8
S1130D70200D1124922E11C0EAE02E9E200D112484
S1130D80222EF32DF0623F2E08C08C3621F4832DE1
S1130D908068382E02C0883641F4F70193FD8591AE
S1130DA093FF81917F018111B3CF982F9F7D95543B
S1130DB0933028F40C5F1F4F9FE399830DC0833653
S1130DC031F0833771F0833509F059C021C0F8013F
S1130DD0808189830E5F1F4F88248394912C530153
S1130DE013C02801F2E04F0E511CF801A080B1801D
S1130DF036FE03C0692D70E002C06FEF7FEFC501BE
S1130E000E9446084C018201F32DFF773F2E16C045
S1130E10280122E0420E511CF801A080B18036FE68
S1130E2003C0692D70E002C06FEF7FEFC5010E941F
S1130E303B084C01F32DF0683F2E820133FC1BC0AC
S1130E40822D90E088169906B0F4B60180E290E015
S1130E500E9451082A94F4CFF50137FC859137FE9E
S1130E6081915F01B60190E00E94510821102A94FB
S1130E7021E0821A91088114910471F7E8C0843644
S1130E8011F0893641F5F80137FE07C060817181A0
S1130E90828193810C5F1F4F08C060817181072E8E
S1130EA0000C880B990B0E5F1F4FF32DFF763F2E1E
S1130EB097FF09C090958095709561957F4F8F4FEE
S1130EC09F4FF0683F2E2AE030E0A3010E948D0876
S1130ED0882E861845C0853731F4232D2F7EB22EF7
S1130EE02AE030E025C0932D997FB92E8F36C1F0CA
S1130EF018F4883579F0B5C0803719F0883721F0B7
S1130F00B0C0E92FE061BE2EB4FE0DC0FB2DF4602D
S1130F10BF2E09C034FE0AC0292F2660B22E06C097
S1130F2028E030E005C020E130E002C020E132E0FA
S1130F30F801B7FE07C060817181828193810C5FE3
S1130F401F4F06C06081718180E090E00E5F1F4FEB
S1130F50A3010E948D08882E8618FB2DFF773F2E53
S1130F6036FE0DC0232D2E7FA22E891458F434FE94
S1130F700BC032FC09C0832D8E7EA82E05C0B82C70
S1130F80A32C03C0B82C01C0B92CA4FE0FC0FE01D1
S1130F90E80DF11D8081803321F49A2D997EA92ECC
S1130FA009C0A2FE06C0B394B39404C08A2D867807
S1130FB009F0B394A3FC11C0A0FE06C0B21488F4D7
S1130FC0280C922C9B180EC0B21460F4B60180E277
S1130FD090E00E945108B394F7CFB21418F42B1880
S1130FE002C0982C212CA4FE10C0B60180E390E02E
S1130FF00E945108A2FE17C0A1FC03C088E790E03C
S113100002C088E590E0B6010CC08A2D867859F0BC
S1131010A1FE02C08BE201C080E2A7FC8DE2B60112
S113102090E00E945108891438F4B60180E390E0FE
S11310300E9451089A94F7CF8A94F301E80DF11DA8
S11310408081B60190E00E9451088110F5CF2220E2
S113105009F442CEB60180E290E00E9451082A943D
S1131060F6CFF6018681978102C08FEF9FEF2B9612
S1131070E2E10C943909FC010590615070400110C3
S1131080D8F7809590958E0F9F1F0895FC016150AD
S1131090704001900110D8F7809590958E0F9F1F96
S11310A008950F931F93CF93DF93FB01238121FDB9
S11310B003C08FEF9FEF2CC022FF16C046815781DB
S11310C0248135814217530744F4A081B1819D01E5
S11310D02F5F3F4F318320838C93268137812F5F8D
S11310E03F4F3783268314C08B01EC01FB0100843E
S11310F0F185E02D0995892BE1F6D80116968D919D
S11311009C911797019617969C938E931697CE01F0
S1131110DF91CF911F910F910895FA01AA272830EA
S113112051F1203181F1E8946F936E7F6E5F7F4FB0
S11311308F4F9F4FAF4FB1E03ED0B4E03CD0670F2C
S1131140781F891F9A1FA11D680F791F8A1F911D7F
S1131150A11D6A0F711D811D911DA11D20D009F4CF
S113116068943F912AE0269F11243019305D319311
S1131170DEF6CF010895462F4770405D4193B3E0FA
S11311800FD0C9F7F6CF462F4F70405D4A3318F0A1
S1131190495D31FD4052419302D0A9F7EACFB4E052
S11311A0A6959795879577956795BA95C9F700970A
S11311B06105710508959B01AC010A2E06945795AB
S11311C0479537952795BA95C9F7620F731F841F02
S11311D0951FA01D0895052E97FB1EF400940E94F0
S11311E0020957FD07D00E94700507FC03D04EF496
S11311F00C94020950954095309521953F4F4F4FDF
S11312005F4F089590958095709561957F4F8F4FAE
S11312109F4F08950E945409A59F900DB49F900D6F
S1131220A49F800D911D11240895B7FF0C940A0901
S11312300E940A09821B930B08952F923F924F92AA
S11312405F926F927F928F929F92AF92BF92CF9252
S1131250DF92EF92FF920F931F93CF93DF93CDB75B
S1131260DEB7CA1BDB0B0FB6F894DEBF0FBECDBFD3
S113127009942A88398848885F846E847D848C84A4
S11312809B84AA84B984C884DF80EE80FD800C81AD
S11312901B81AA81B981CE0FD11D0FB6F894DEBF90
S11312A00FBECDBFED010895A29FB001B39FC00151
S11312B0A39F700D811D1124911DB29F700D811D7E
S10D12C01124911D0895F894FFCF46
S11312CA010000003C2D506C6179202053636F7239
S11312DA653A00000000010100257325640050727C
S11312EA65737461206174656E63696F6E21002091
S11312FA202020202020476F212020202020200089
S113130A20202020526F6E646120003C2D506C61B5
S113131A79202053636F72653A2530327500202094
S113132A2053696D6F6E2053617973002020202049
S113133A204269656E2120202020202000202020C0
S113134A47414D45204F5645522120202000202355
S113135A313A253032752020202023323A25303282
S113136A75002023333A2530327520202020233477
S109137A3A253032750033
S90301B744
